{
  "contractName": "Debate",
  "abi": [
    {
      "inputs": [
        {
          "components": [
            {
              "components": [
                {
                  "internalType": "string",
                  "name": "name",
                  "type": "string"
                },
                {
                  "internalType": "address payable",
                  "name": "addr",
                  "type": "address"
                },
                {
                  "internalType": "uint256",
                  "name": "totalSpeaks",
                  "type": "uint256"
                },
                {
                  "internalType": "uint256[]",
                  "name": "speaks",
                  "type": "uint256[]"
                }
              ],
              "internalType": "struct Users.Debater",
              "name": "debater1",
              "type": "tuple"
            },
            {
              "components": [
                {
                  "internalType": "string",
                  "name": "name",
                  "type": "string"
                },
                {
                  "internalType": "address payable",
                  "name": "addr",
                  "type": "address"
                },
                {
                  "internalType": "uint256",
                  "name": "totalSpeaks",
                  "type": "uint256"
                },
                {
                  "internalType": "uint256[]",
                  "name": "speaks",
                  "type": "uint256[]"
                }
              ],
              "internalType": "struct Users.Debater",
              "name": "debater2",
              "type": "tuple"
            },
            {
              "internalType": "string",
              "name": "teamCode",
              "type": "string"
            },
            {
              "internalType": "uint256",
              "name": "totalSpeaks",
              "type": "uint256"
            },
            {
              "internalType": "uint256",
              "name": "wins",
              "type": "uint256"
            }
          ],
          "internalType": "struct Users.Team",
          "name": "_aff_team",
          "type": "tuple"
        },
        {
          "components": [
            {
              "components": [
                {
                  "internalType": "string",
                  "name": "name",
                  "type": "string"
                },
                {
                  "internalType": "address payable",
                  "name": "addr",
                  "type": "address"
                },
                {
                  "internalType": "uint256",
                  "name": "totalSpeaks",
                  "type": "uint256"
                },
                {
                  "internalType": "uint256[]",
                  "name": "speaks",
                  "type": "uint256[]"
                }
              ],
              "internalType": "struct Users.Debater",
              "name": "debater1",
              "type": "tuple"
            },
            {
              "components": [
                {
                  "internalType": "string",
                  "name": "name",
                  "type": "string"
                },
                {
                  "internalType": "address payable",
                  "name": "addr",
                  "type": "address"
                },
                {
                  "internalType": "uint256",
                  "name": "totalSpeaks",
                  "type": "uint256"
                },
                {
                  "internalType": "uint256[]",
                  "name": "speaks",
                  "type": "uint256[]"
                }
              ],
              "internalType": "struct Users.Debater",
              "name": "debater2",
              "type": "tuple"
            },
            {
              "internalType": "string",
              "name": "teamCode",
              "type": "string"
            },
            {
              "internalType": "uint256",
              "name": "totalSpeaks",
              "type": "uint256"
            },
            {
              "internalType": "uint256",
              "name": "wins",
              "type": "uint256"
            }
          ],
          "internalType": "struct Users.Team",
          "name": "_neg_team",
          "type": "tuple"
        },
        {
          "components": [
            {
              "internalType": "address payable",
              "name": "judgeAddr",
              "type": "address"
            },
            {
              "internalType": "string",
              "name": "name",
              "type": "string"
            },
            {
              "internalType": "uint256",
              "name": "roundsRemaining",
              "type": "uint256"
            }
          ],
          "internalType": "struct Users.Judge[]",
          "name": "_judges",
          "type": "tuple[]"
        },
        {
          "internalType": "string",
          "name": "_roomNumber",
          "type": "string"
        },
        {
          "internalType": "address",
          "name": "_tournamentContract",
          "type": "address"
        }
      ],
      "stateMutability": "nonpayable",
      "type": "constructor"
    },
    {
      "anonymous": false,
      "inputs": [
        {
          "indexed": false,
          "internalType": "string",
          "name": "judgeName",
          "type": "string"
        },
        {
          "indexed": false,
          "internalType": "string",
          "name": "_decision",
          "type": "string"
        },
        {
          "components": [
            {
              "components": [
                {
                  "internalType": "string",
                  "name": "name",
                  "type": "string"
                },
                {
                  "internalType": "address payable",
                  "name": "addr",
                  "type": "address"
                },
                {
                  "internalType": "uint256",
                  "name": "totalSpeaks",
                  "type": "uint256"
                },
                {
                  "internalType": "uint256[]",
                  "name": "speaks",
                  "type": "uint256[]"
                }
              ],
              "internalType": "struct Users.Debater",
              "name": "debater1",
              "type": "tuple"
            },
            {
              "components": [
                {
                  "internalType": "string",
                  "name": "name",
                  "type": "string"
                },
                {
                  "internalType": "address payable",
                  "name": "addr",
                  "type": "address"
                },
                {
                  "internalType": "uint256",
                  "name": "totalSpeaks",
                  "type": "uint256"
                },
                {
                  "internalType": "uint256[]",
                  "name": "speaks",
                  "type": "uint256[]"
                }
              ],
              "internalType": "struct Users.Debater",
              "name": "debater2",
              "type": "tuple"
            },
            {
              "internalType": "string",
              "name": "teamCode",
              "type": "string"
            },
            {
              "internalType": "uint256",
              "name": "totalSpeaks",
              "type": "uint256"
            },
            {
              "internalType": "uint256",
              "name": "wins",
              "type": "uint256"
            }
          ],
          "indexed": false,
          "internalType": "struct Users.Team",
          "name": "winner",
          "type": "tuple"
        }
      ],
      "name": "ballotSubmitted",
      "type": "event"
    },
    {
      "anonymous": false,
      "inputs": [
        {
          "components": [
            {
              "components": [
                {
                  "internalType": "string",
                  "name": "name",
                  "type": "string"
                },
                {
                  "internalType": "address payable",
                  "name": "addr",
                  "type": "address"
                },
                {
                  "internalType": "uint256",
                  "name": "totalSpeaks",
                  "type": "uint256"
                },
                {
                  "internalType": "uint256[]",
                  "name": "speaks",
                  "type": "uint256[]"
                }
              ],
              "internalType": "struct Users.Debater",
              "name": "debater1",
              "type": "tuple"
            },
            {
              "components": [
                {
                  "internalType": "string",
                  "name": "name",
                  "type": "string"
                },
                {
                  "internalType": "address payable",
                  "name": "addr",
                  "type": "address"
                },
                {
                  "internalType": "uint256",
                  "name": "totalSpeaks",
                  "type": "uint256"
                },
                {
                  "internalType": "uint256[]",
                  "name": "speaks",
                  "type": "uint256[]"
                }
              ],
              "internalType": "struct Users.Debater",
              "name": "debater2",
              "type": "tuple"
            },
            {
              "internalType": "string",
              "name": "teamCode",
              "type": "string"
            },
            {
              "internalType": "uint256",
              "name": "totalSpeaks",
              "type": "uint256"
            },
            {
              "internalType": "uint256",
              "name": "wins",
              "type": "uint256"
            }
          ],
          "indexed": false,
          "internalType": "struct Users.Team",
          "name": "_winner",
          "type": "tuple"
        },
        {
          "indexed": false,
          "internalType": "uint256",
          "name": "affBallots",
          "type": "uint256"
        },
        {
          "indexed": false,
          "internalType": "uint256",
          "name": "negBallots",
          "type": "uint256"
        }
      ],
      "name": "winnerDetermined",
      "type": "event"
    },
    {
      "inputs": [
        {
          "internalType": "address",
          "name": "",
          "type": "address"
        }
      ],
      "name": "judge_names",
      "outputs": [
        {
          "internalType": "string",
          "name": "",
          "type": "string"
        }
      ],
      "stateMutability": "view",
      "type": "function"
    },
    {
      "inputs": [
        {
          "internalType": "address",
          "name": "",
          "type": "address"
        }
      ],
      "name": "judges",
      "outputs": [
        {
          "internalType": "bool",
          "name": "",
          "type": "bool"
        }
      ],
      "stateMutability": "view",
      "type": "function"
    },
    {
      "inputs": [],
      "name": "numJudges",
      "outputs": [
        {
          "internalType": "uint256",
          "name": "",
          "type": "uint256"
        }
      ],
      "stateMutability": "view",
      "type": "function"
    },
    {
      "inputs": [],
      "name": "startRound",
      "outputs": [],
      "stateMutability": "nonpayable",
      "type": "function"
    },
    {
      "inputs": [
        {
          "components": [
            {
              "internalType": "address payable",
              "name": "judgeAddr",
              "type": "address"
            },
            {
              "internalType": "string",
              "name": "name",
              "type": "string"
            },
            {
              "internalType": "uint256",
              "name": "roundsRemaining",
              "type": "uint256"
            }
          ],
          "internalType": "struct Users.Judge",
          "name": "judge",
          "type": "tuple"
        },
        {
          "internalType": "string",
          "name": "_decision",
          "type": "string"
        },
        {
          "components": [
            {
              "components": [
                {
                  "internalType": "string",
                  "name": "name",
                  "type": "string"
                },
                {
                  "internalType": "address payable",
                  "name": "addr",
                  "type": "address"
                },
                {
                  "internalType": "uint256",
                  "name": "totalSpeaks",
                  "type": "uint256"
                },
                {
                  "internalType": "uint256[]",
                  "name": "speaks",
                  "type": "uint256[]"
                }
              ],
              "internalType": "struct Users.Debater",
              "name": "debater1",
              "type": "tuple"
            },
            {
              "components": [
                {
                  "internalType": "string",
                  "name": "name",
                  "type": "string"
                },
                {
                  "internalType": "address payable",
                  "name": "addr",
                  "type": "address"
                },
                {
                  "internalType": "uint256",
                  "name": "totalSpeaks",
                  "type": "uint256"
                },
                {
                  "internalType": "uint256[]",
                  "name": "speaks",
                  "type": "uint256[]"
                }
              ],
              "internalType": "struct Users.Debater",
              "name": "debater2",
              "type": "tuple"
            },
            {
              "internalType": "string",
              "name": "teamCode",
              "type": "string"
            },
            {
              "internalType": "uint256",
              "name": "totalSpeaks",
              "type": "uint256"
            },
            {
              "internalType": "uint256",
              "name": "wins",
              "type": "uint256"
            }
          ],
          "internalType": "struct Users.Team",
          "name": "_winner",
          "type": "tuple"
        }
      ],
      "name": "submitBallot",
      "outputs": [
        {
          "internalType": "string",
          "name": "",
          "type": "string"
        }
      ],
      "stateMutability": "nonpayable",
      "type": "function"
    },
    {
      "inputs": [
        {
          "internalType": "address",
          "name": "_judgeAddr",
          "type": "address"
        }
      ],
      "name": "getRFD",
      "outputs": [
        {
          "internalType": "string",
          "name": "",
          "type": "string"
        }
      ],
      "stateMutability": "view",
      "type": "function"
    }
  ],
  "bytecode": "0x60806040526000602560006101000a81548160ff021916908315150217905550600060285560006029556000602b60006101000a81548160ff0219169083151502179055503480156200005157600080fd5b5060405162002ffd38038062002ffd833981810160405281019062000077919062000a1e565b84600080820151816000016000820151816000019080519060200190620000a092919062000518565b5060208201518160010160006101000a81548173ffffffffffffffffffffffffffffffffffffffff021916908373ffffffffffffffffffffffffffffffffffffffff16021790555060408201518160020155606082015181600301908051906020019062000110929190620005af565b50505060208201518160040160008201518160000190805190602001906200013a92919062000518565b5060208201518160010160006101000a81548173ffffffffffffffffffffffffffffffffffffffff021916908373ffffffffffffffffffffffffffffffffffffffff160217905550604082015181600201556060820151816003019080519060200190620001aa929190620005af565b5050506040820151816008019080519060200190620001cb92919062000518565b5060608201518160090155608082015181600a015590505083600b60008201518160000160008201518160000190805190602001906200020d92919062000518565b5060208201518160010160006101000a81548173ffffffffffffffffffffffffffffffffffffffff021916908373ffffffffffffffffffffffffffffffffffffffff1602179055506040820151816002015560608201518160030190805190602001906200027d929190620005af565b5050506020820151816004016000820151816000019080519060200190620002a792919062000518565b5060208201518160010160006101000a81548173ffffffffffffffffffffffffffffffffffffffff021916908373ffffffffffffffffffffffffffffffffffffffff16021790555060408201518160020155606082015181600301908051906020019062000317929190620005af565b50505060408201518160080190805190602001906200033892919062000518565b5060608201518160090155608082015181600a01559050508251601881905550825160278190555081602490805190602001906200037892919062000518565b5033602660006101000a81548173ffffffffffffffffffffffffffffffffffffffff021916908373ffffffffffffffffffffffffffffffffffffffff16021790555080602560016101000a81548173ffffffffffffffffffffffffffffffffffffffff021916908373ffffffffffffffffffffffffffffffffffffffff16021790555060005b83518110156200050c576001601660008684815181106200041b57fe5b60200260200101516000015173ffffffffffffffffffffffffffffffffffffffff1673ffffffffffffffffffffffffffffffffffffffff16815260200190815260200160002060006101000a81548160ff0219169083151502179055508381815181106200048557fe5b60200260200101516020015160176000868481518110620004a257fe5b60200260200101516000015173ffffffffffffffffffffffffffffffffffffffff1673ffffffffffffffffffffffffffffffffffffffff1681526020019081526020016000209080519060200190620004fd92919062000518565b508080600101915050620003fe565b50505050505062000ca1565b828054600181600116156101000203166002900490600052602060002090601f0160209004810192826200055057600085556200059c565b82601f106200056b57805160ff19168380011785556200059c565b828001600101855582156200059c579182015b828111156200059b5782518255916020019190600101906200057e565b5b509050620005ab919062000601565b5090565b828054828255906000526020600020908101928215620005ee579160200282015b82811115620005ed578251825591602001919060010190620005d0565b5b509050620005fd919062000601565b5090565b5b808211156200061c57600081600090555060010162000602565b5090565b600062000637620006318462000b38565b62000b04565b9050808382526020820190508260005b858110156200067b5781518501620006608882620008a5565b84526020840193506020830192505060018101905062000647565b5050509392505050565b60006200069c620006968462000b67565b62000b04565b90508083825260208201905082856020860282011115620006bc57600080fd5b60005b85811015620006f05781620006d5888262000a07565b845260208401935060208301925050600181019050620006bf565b5050509392505050565b6000620007116200070b8462000b96565b62000b04565b9050828152602081018484840111156200072a57600080fd5b6200073784828562000c1b565b509392505050565b600081519050620007508162000c53565b92915050565b600081519050620007678162000c6d565b92915050565b600082601f8301126200077f57600080fd5b81516200079184826020860162000620565b91505092915050565b600082601f830112620007ac57600080fd5b8151620007be84826020860162000685565b91505092915050565b600082601f830112620007d957600080fd5b8151620007eb848260208601620006fa565b91505092915050565b6000608082840312156200080757600080fd5b62000813608062000b04565b9050600082015167ffffffffffffffff8111156200083057600080fd5b6200083e84828501620007c7565b6000830152506020620008548482850162000756565b60208301525060406200086a8482850162000a07565b604083015250606082015167ffffffffffffffff8111156200088b57600080fd5b62000899848285016200079a565b60608301525092915050565b600060608284031215620008b857600080fd5b620008c4606062000b04565b90506000620008d68482850162000756565b600083015250602082015167ffffffffffffffff811115620008f757600080fd5b6200090584828501620007c7565b60208301525060406200091b8482850162000a07565b60408301525092915050565b600060a082840312156200093a57600080fd5b6200094660a062000b04565b9050600082015167ffffffffffffffff8111156200096357600080fd5b6200097184828501620007f4565b600083015250602082015167ffffffffffffffff8111156200099257600080fd5b620009a084828501620007f4565b602083015250604082015167ffffffffffffffff811115620009c157600080fd5b620009cf84828501620007c7565b6040830152506060620009e58482850162000a07565b6060830152506080620009fb8482850162000a07565b60808301525092915050565b60008151905062000a188162000c87565b92915050565b600080600080600060a0868803121562000a3757600080fd5b600086015167ffffffffffffffff81111562000a5257600080fd5b62000a608882890162000927565b955050602086015167ffffffffffffffff81111562000a7e57600080fd5b62000a8c8882890162000927565b945050604086015167ffffffffffffffff81111562000aaa57600080fd5b62000ab8888289016200076d565b935050606086015167ffffffffffffffff81111562000ad657600080fd5b62000ae488828901620007c7565b925050608062000af7888289016200073f565b9150509295509295909350565b6000604051905081810181811067ffffffffffffffff8211171562000b2e5762000b2d62000c51565b5b8060405250919050565b600067ffffffffffffffff82111562000b565762000b5562000c51565b5b602082029050602081019050919050565b600067ffffffffffffffff82111562000b855762000b8462000c51565b5b602082029050602081019050919050565b600067ffffffffffffffff82111562000bb45762000bb362000c51565b5b601f19601f8301169050602081019050919050565b600062000bd68262000bf1565b9050919050565b600062000bea8262000bf1565b9050919050565b600073ffffffffffffffffffffffffffffffffffffffff82169050919050565b6000819050919050565b60005b8381101562000c3b57808201518184015260208101905062000c1e565b8381111562000c4b576000848401525b50505050565bfe5b62000c5e8162000bc9565b811462000c6a57600080fd5b50565b62000c788162000bdd565b811462000c8457600080fd5b50565b62000c928162000c11565b811462000c9e57600080fd5b50565b61234c8062000cb16000396000f3fe608060405234801561001057600080fd5b506004361061007f576000357c01000000000000000000000000000000000000000000000000000000009004806304128097146100845780630d359931146100b45780633eed31fe146100e457806355e3f086146101025780638422a2f21461010c578063b618dfe31461013c575b600080fd5b61009e60048036038101906100999190611795565b61016c565b6040516100ab9190611f38565b60405180910390f35b6100ce60048036038101906100c99190611743565b6107c6565b6040516100db9190611f38565b60405180910390f35b6100ec610876565b6040516100f9919061201b565b60405180910390f35b61010a61087c565b005b61012660048036038101906101219190611743565b6108f6565b6040516101339190611f1d565b60405180910390f35b61015660048036038101906101519190611743565b610916565b6040516101639190611f38565b60405180910390f35b606060011515601660003373ffffffffffffffffffffffffffffffffffffffff1673ffffffffffffffffffffffffffffffffffffffff16815260200190815260200160002060009054906101000a900460ff161515146101cb57600080fd5b6040518060600160405280838152602001848152602001601760003373ffffffffffffffffffffffffffffffffffffffff1673ffffffffffffffffffffffffffffffffffffffff1681526020019081526020016000208054600181600116156101000203166002900480601f0160208091040260200160405190810160405280929190818152602001828054600181600116156101000203166002900480156102b55780601f1061028a576101008083540402835291602001916102b5565b820191906000526020600020905b81548152906001019060200180831161029857829003601f168201915b5050505050815250602a60003373ffffffffffffffffffffffffffffffffffffffff1673ffffffffffffffffffffffffffffffffffffffff168152602001908152602001600020600082015181600001600082015181600001600082015181600001908051906020019061032a929190611294565b5060208201518160010160006101000a81548173ffffffffffffffffffffffffffffffffffffffff021916908373ffffffffffffffffffffffffffffffffffffffff160217905550604082015181600201556060820151816003019080519060200190610398929190611322565b50505060208201518160040160008201518160000190805190602001906103c0929190611294565b5060208201518160010160006101000a81548173ffffffffffffffffffffffffffffffffffffffff021916908373ffffffffffffffffffffffffffffffffffffffff16021790555060408201518160020155606082015181600301908051906020019061042e929190611322565b505050604082015181600801908051906020019061044d929190611294565b5060608201518160090155608082015181600a01555050602082015181600b019080519060200190610480929190611294565b50604082015181600c01908051906020019061049d929190611294565b509050507e044fd98dab5233a736bcb7e8a071096a1ae13617f4ff08392d95cd06ea03d0601760003373ffffffffffffffffffffffffffffffffffffffff1673ffffffffffffffffffffffffffffffffffffffff168152602001908152602001600020848460405161051193929190611f5a565b60405180910390a160276000815480929190600190039190505550600060275414156106e25761053f6109fa565b60196000820151816000016000820151816000019080519060200190610566929190611294565b5060208201518160010160006101000a81548173ffffffffffffffffffffffffffffffffffffffff021916908373ffffffffffffffffffffffffffffffffffffffff1602179055506040820151816002015560608201518160030190805190602001906105d4929190611322565b50505060208201518160040160008201518160000190805190602001906105fc929190611294565b5060208201518160010160006101000a81548173ffffffffffffffffffffffffffffffffffffffff021916908373ffffffffffffffffffffffffffffffffffffffff16021790555060408201518160020155606082015181600301908051906020019061066a929190611322565b5050506040820151816008019080519060200190610689929190611294565b5060608201518160090155608082015181600a01559050507f691e92065d5666e361ad541f92e378e50d6678fda8c199de490cef64f129159260196028546029546040516106d993929190611fdd565b60405180910390a15b602a60003373ffffffffffffffffffffffffffffffffffffffff1673ffffffffffffffffffffffffffffffffffffffff168152602001908152602001600020600b018054600181600116156101000203166002900480601f0160208091040260200160405190810160405280929190818152602001828054600181600116156101000203166002900480156107b85780601f1061078d576101008083540402835291602001916107b8565b820191906000526020600020905b81548152906001019060200180831161079b57829003601f168201915b505050505090509392505050565b60176020528060005260406000206000915090508054600181600116156101000203166002900480601f01602080910402602001604051908101604052809291908181526020018280546001816001161561010002031660029004801561086e5780601f106108435761010080835404028352916020019161086e565b820191906000526020600020905b81548152906001019060200180831161085157829003601f168201915b505050505081565b60185481565b60011515601660003373ffffffffffffffffffffffffffffffffffffffff1673ffffffffffffffffffffffffffffffffffffffff16815260200190815260200160002060009054906101000a900460ff161515146108d957600080fd5b6001602560006101000a81548160ff021916908315150217905550565b60166020528060005260406000206000915054906101000a900460ff1681565b6060602a60008373ffffffffffffffffffffffffffffffffffffffff1673ffffffffffffffffffffffffffffffffffffffff168152602001908152602001600020600b018054600181600116156101000203166002900480601f0160208091040260200160405190810160405280929190818152602001828054600181600116156101000203166002900480156109ee5780601f106109c3576101008083540402835291602001916109ee565b820191906000526020600020905b8154815290600101906020018083116109d157829003601f168201915b50505050509050919050565b610a0261136f565b60005b601854811015610b325773__Users_________________________________63bb1d442f602a60003373ffffffffffffffffffffffffffffffffffffffff1673ffffffffffffffffffffffffffffffffffffffff16815260200190815260200160002060000160006040518363ffffffff167c0100000000000000000000000000000000000000000000000000000000028152600401610aa6929190611fa6565b60206040518083038186803b158015610abe57600080fd5b505af4158015610ad2573d6000803e3d6000fd5b505050506040513d601f19601f82011682018060405250810190610af6919061176c565b15610b1257602860008154809291906001019190505550610b25565b6029600081548092919060010191905055505b8080600101915050610a05565b50600260185481610b3f57fe5b046028541115610eef5760006040518060a001604052908160008201604051806080016040529081600082018054600181600116156101000203166002900480601f016020809104026020016040519081016040528092919081815260200182805460018160011615610100020316600290048015610bff5780601f10610bd457610100808354040283529160200191610bff565b820191906000526020600020905b815481529060010190602001808311610be257829003601f168201915b505050505081526020016001820160009054906101000a900473ffffffffffffffffffffffffffffffffffffffff1673ffffffffffffffffffffffffffffffffffffffff1673ffffffffffffffffffffffffffffffffffffffff1681526020016002820154815260200160038201805480602002602001604051908101604052809291908181526020018280548015610cb757602002820191906000526020600020905b815481526020019060010190808311610ca3575b505050505081525050815260200160048201604051806080016040529081600082018054600181600116156101000203166002900480601f016020809104026020016040519081016040528092919081815260200182805460018160011615610100020316600290048015610d6d5780601f10610d4257610100808354040283529160200191610d6d565b820191906000526020600020905b815481529060010190602001808311610d5057829003601f168201915b505050505081526020016001820160009054906101000a900473ffffffffffffffffffffffffffffffffffffffff1673ffffffffffffffffffffffffffffffffffffffff1673ffffffffffffffffffffffffffffffffffffffff1681526020016002820154815260200160038201805480602002602001604051908101604052809291908181526020018280548015610e2557602002820191906000526020600020905b815481526020019060010190808311610e11575b5050505050815250508152602001600882018054600181600116156101000203166002900480601f016020809104026020016040519081016040528092919081815260200182805460018160011615610100020316600290048015610ecb5780601f10610ea057610100808354040283529160200191610ecb565b820191906000526020600020905b815481529060010190602001808311610eae57829003601f168201915b5050505050815260200160098201548152602001600a820154815250509050611291565b600b6040518060a001604052908160008201604051806080016040529081600082018054600181600116156101000203166002900480601f016020809104026020016040519081016040528092919081815260200182805460018160011615610100020316600290048015610fa55780601f10610f7a57610100808354040283529160200191610fa5565b820191906000526020600020905b815481529060010190602001808311610f8857829003601f168201915b505050505081526020016001820160009054906101000a900473ffffffffffffffffffffffffffffffffffffffff1673ffffffffffffffffffffffffffffffffffffffff1673ffffffffffffffffffffffffffffffffffffffff168152602001600282015481526020016003820180548060200260200160405190810160405280929190818152602001828054801561105d57602002820191906000526020600020905b815481526020019060010190808311611049575b505050505081525050815260200160048201604051806080016040529081600082018054600181600116156101000203166002900480601f0160208091040260200160405190810160405280929190818152602001828054600181600116156101000203166002900480156111135780601f106110e857610100808354040283529160200191611113565b820191906000526020600020905b8154815290600101906020018083116110f657829003601f168201915b505050505081526020016001820160009054906101000a900473ffffffffffffffffffffffffffffffffffffffff1673ffffffffffffffffffffffffffffffffffffffff1673ffffffffffffffffffffffffffffffffffffffff16815260200160028201548152602001600382018054806020026020016040519081016040528092919081815260200182805480156111cb57602002820191906000526020600020905b8154815260200190600101908083116111b7575b5050505050815250508152602001600882018054600181600116156101000203166002900480601f0160208091040260200160405190810160405280929190818152602001828054600181600116156101000203166002900480156112715780601f1061124657610100808354040283529160200191611271565b820191906000526020600020905b81548152906001019060200180831161125457829003601f168201915b5050505050815260200160098201548152602001600a8201548152505090505b90565b828054600181600116156101000203166002900490600052602060002090601f0160209004810192826112ca5760008555611311565b82601f106112e357805160ff1916838001178555611311565b82800160010185558215611311579182015b828111156113105782518255916020019190600101906112f5565b5b50905061131e91906113aa565b5090565b82805482825590600052602060002090810192821561135e579160200282015b8281111561135d578251825591602001919060010190611342565b5b50905061136b91906113aa565b5090565b6040518060a001604052806113826113c7565b815260200161138f6113c7565b81526020016060815260200160008152602001600081525090565b5b808211156113c35760008160009055506001016113ab565b5090565b604051806080016040528060608152602001600073ffffffffffffffffffffffffffffffffffffffff16815260200160008152602001606081525090565b600061141861141384612067565b612036565b9050808382526020820190508285602086028201111561143757600080fd5b60005b85811015611467578161144d888261172e565b84526020840193506020830192505060018101905061143a565b5050509392505050565b600061148461147f84612093565b612036565b90508281526020810184848401111561149c57600080fd5b6114a7848285612211565b509392505050565b6000813590506114be816122ba565b92915050565b6000813590506114d3816122d1565b92915050565b600082601f8301126114ea57600080fd5b81356114fa848260208601611405565b91505092915050565b600081519050611512816122e8565b92915050565b600082601f83011261152957600080fd5b8135611539848260208601611471565b91505092915050565b60006080828403121561155457600080fd5b61155e6080612036565b9050600082013567ffffffffffffffff81111561157a57600080fd5b61158684828501611518565b600083015250602061159a848285016114c4565b60208301525060406115ae8482850161172e565b604083015250606082013567ffffffffffffffff8111156115ce57600080fd5b6115da848285016114d9565b60608301525092915050565b6000606082840312156115f857600080fd5b6116026060612036565b90506000611612848285016114c4565b600083015250602082013567ffffffffffffffff81111561163257600080fd5b61163e84828501611518565b60208301525060406116528482850161172e565b60408301525092915050565b600060a0828403121561167057600080fd5b61167a60a0612036565b9050600082013567ffffffffffffffff81111561169657600080fd5b6116a284828501611542565b600083015250602082013567ffffffffffffffff8111156116c257600080fd5b6116ce84828501611542565b602083015250604082013567ffffffffffffffff8111156116ee57600080fd5b6116fa84828501611518565b604083015250606061170e8482850161172e565b60608301525060806117228482850161172e565b60808301525092915050565b60008135905061173d816122ff565b92915050565b60006020828403121561175557600080fd5b6000611763848285016114af565b91505092915050565b60006020828403121561177e57600080fd5b600061178c84828501611503565b91505092915050565b6000806000606084860312156117aa57600080fd5b600084013567ffffffffffffffff8111156117c457600080fd5b6117d0868287016115e6565b935050602084013567ffffffffffffffff8111156117ed57600080fd5b6117f986828701611518565b925050604084013567ffffffffffffffff81111561181657600080fd5b6118228682870161165e565b9150509250925092565b60006118388383611ef0565b60208301905092915050565b60006118508383611f0e565b60208301905092915050565b611865816121c9565b82525050565b611874816121c9565b82525050565b6000611885826120fd565b61188f8185612138565b935061189a836120c3565b8060005b838110156118cb5781516118b2888261182c565b97506118bd8361211e565b92505060018101905061189e565b5085935050505092915050565b60006118e382612108565b6118ed8185612138565b93506118f8836120d3565b8060005b838110156119305761190d82612289565b611917888261182c565b97506119228361212b565b9250506001810190506118fc565b5085935050505092915050565b600061194882612108565b6119528185612149565b935061195d836120d3565b8060005b838110156119955761197282612289565b61197c8882611844565b97506119878361212b565b925050600181019050611961565b5085935050505092915050565b6119ab816121db565b82525050565b60006119bc82612113565b6119c6818561215a565b93506119d6818560208601612220565b6119df8161229c565b840191505092915050565b60006119f582612113565b6119ff818561216b565b9350611a0f818560208601612220565b611a188161229c565b840191505092915050565b600081546001811660008114611a405760018114611a6657611aaa565b607f6002830416611a51818761215a565b955060ff198316865260208601935050611aaa565b60028204611a74818761215a565b9550611a7f856120e8565b60005b82811015611aa157815481890152600182019150602081019050611a82565b80880195505050505b505092915050565b600081546001811660008114611acf5760018114611af557611b39565b607f6002830416611ae0818761216b565b955060ff198316865260208601935050611b39565b60028204611b03818761216b565b9550611b0e856120e8565b60005b82811015611b3057815481890152600182019150602081019050611b11565b80880195505050505b505092915050565b600081546001811660008114611b5e5760018114611b8457611bc8565b607f6002830416611b6f818761217c565b955060ff198316865260208601935050611bc8565b60028204611b92818761217c565b9550611b9d856120e8565b60005b82811015611bbf57815481890152600182019150602081019050611ba0565b80880195505050505b505092915050565b60006080830160008301518482036000860152611bed82826119b1565b9150506020830151611c02602086018261185c565b506040830151611c156040860182611ef0565b5060608301518482036060860152611c2d828261187a565b9150508091505092915050565b60006080830160008084018583036000870152611c578382611a23565b92505060018401549050611c6a81612253565b611c77602087018261185c565b5060028401549050611c888161226d565b611c956040870182611ef0565b50600384018583036060870152611cac83826118d8565b925050819250505092915050565b60006080830160008084018583036000870152611cd78382611b41565b92505060018401549050611cea81612253565b611cf7602087018261186b565b5060028401549050611d088161226d565b611d156040870182611f0e565b50600384018583036060870152611d2c838261193d565b925050819250505092915050565b600060a0830160008301518482036000860152611d578282611bd0565b91505060208301518482036020860152611d718282611bd0565b91505060408301518482036040860152611d8b82826119b1565b9150506060830151611da06060860182611ef0565b506080830151611db36080860182611ef0565b508091505092915050565b600060a0830160008084018583036000870152611ddb8382611c3a565b925050600484018583036020870152611df48382611c3a565b925050600884018583036040870152611e0d8382611a23565b92505060098401549050611e208161226d565b611e2d6060870182611ef0565b50600a8401549050611e3e8161226d565b611e4b6080870182611ef0565b50819250505092915050565b600060a0830160008084018583036000870152611e748382611cba565b925050600484018583036020870152611e8d8382611cba565b925050600884018583036040870152611ea68382611b41565b92505060098401549050611eb98161226d565b611ec66060870182611f0e565b50600a8401549050611ed78161226d565b611ee46080870182611f0e565b50819250505092915050565b611ef981612207565b82525050565b611f0881612207565b82525050565b611f1781612207565b82525050565b6000602082019050611f3260008301846119a2565b92915050565b60006020820190508181036000830152611f5281846119ea565b905092915050565b60006060820190508181036000830152611f748186611ab2565b90508181036020830152611f8881856119ea565b90508181036040830152611f9c8184611d3a565b9050949350505050565b60006040820190508181036000830152611fc08185611e57565b90508181036020830152611fd48184611e57565b90509392505050565b60006060820190508181036000830152611ff78186611dbe565b90506120066020830185611eff565b6120136040830184611eff565b949350505050565b60006020820190506120306000830184611eff565b92915050565b6000604051905081810181811067ffffffffffffffff8211171561205d5761205c612287565b5b8060405250919050565b600067ffffffffffffffff82111561208257612081612287565b5b602082029050602081019050919050565b600067ffffffffffffffff8211156120ae576120ad612287565b5b601f19601f8301169050602081019050919050565b6000819050602082019050919050565b60008190508160005260206000209050919050565b60008190508160005260206000209050919050565b600081519050919050565b600081549050919050565b600081519050919050565b6000602082019050919050565b6000600182019050919050565b600082825260208201905092915050565b600082825260208201905092915050565b600082825260208201905092915050565b600082825260208201905092915050565b600082825260208201905092915050565b600073ffffffffffffffffffffffffffffffffffffffff82169050919050565b6000819050919050565b60006121c2826121e7565b9050919050565b60006121d4826121e7565b9050919050565b60008115159050919050565b600073ffffffffffffffffffffffffffffffffffffffff82169050919050565b6000819050919050565b82818337600083830152505050565b60005b8381101561223e578082015181840152602081019050612223565b8381111561224d576000848401525b50505050565b6000612266612261836122ad565b61218d565b9050919050565b600061228061227b836122ad565b6121ad565b9050919050565bfe5b6000612295825461226d565b9050919050565b6000601f19601f8301169050919050565b6000600182049050919050565b6122c3816121b7565b81146122ce57600080fd5b50565b6122da816121c9565b81146122e557600080fd5b50565b6122f1816121db565b81146122fc57600080fd5b50565b61230881612207565b811461231357600080fd5b5056fea26469706673582212201c0622c178cc8dc906da30c196686fe7e556d207c32434bb72988ced58d8c76d64736f6c63430007060033",
  "immutableReferences": {},
  "source": "pragma solidity ^0.7.6;\npragma abicoder v2;\n\nimport \"./Users.sol\";\n\ncontract Debate {\n    \n    Users.Team affTeam;\n    Users.Team negTeam;\n    \n    mapping(address => bool) public judges;\n    mapping(address => string) public judge_names;\n    \n    \n    uint public numJudges;\n    Users.Team winner;\n    string roomNumber;\n    bool roundOngoing = false;\n    address tournamentContract;\n    address roundContract;\n    \n    uint private ballotsOutstanding;\n    \n    uint affBallots = 0;\n    uint negBallots = 0;\n   \n  struct rfd {\n      Users.Team winner;\n      string decision;\n      string judgeName;\n  }\n    \n    mapping(address => rfd) decisions;\n    \n    \n    //Events\n    event ballotSubmitted(string judgeName, string _decision, Users.Team winner);\n    event winnerDetermined(Users.Team _winner, uint affBallots, uint negBallots);\n    \n    \n    bool isElimRound = false;\n    \n    constructor(Users.Team memory _aff_team, Users.Team memory _neg_team, Users.Judge[] memory _judges, \n    string memory _roomNumber, address _tournamentContract) {\n        affTeam = _aff_team;\n        negTeam = _neg_team;\n        \n        numJudges = _judges.length;\n        \n        ballotsOutstanding = _judges.length;\n        \n        roomNumber = _roomNumber;\n        roundContract = msg.sender;\n        tournamentContract = _tournamentContract;\n        \n        for(uint x = 0; x < _judges.length; x++) {\n        \n            judges[_judges[x].judgeAddr] = true;\n            judge_names[_judges[x].judgeAddr] = _judges[x].name;\n        }//for\n        \n        \n    }\n    \n    \n    function startRound() public onlyJudges {\n        roundOngoing = true;\n    }\n    \n    \n    \n    function submitBallot(Users.Judge memory judge, string memory _decision, Users.Team memory _winner) \n    onlyJudges public returns(string memory) {\n        \n          \n        decisions[msg.sender] = rfd(_winner, _decision, judge_names[msg.sender]);\n        \n        //Emit Ballot to the blockchain\n        emit ballotSubmitted(judge_names[msg.sender], _decision, _winner);\n        \n        ballotsOutstanding--;\n        \n        if (ballotsOutstanding == 0) {\n            \n            winner = calculateWinner();\n            emit winnerDetermined(winner, affBallots, negBallots);\n        }\n        \n        \n        return decisions[msg.sender].decision;\n        \n    }\n    \n    function calculateWinner() internal returns (Users.Team memory) {\n        for(uint x = 0; x < numJudges; x++) {\n            \n          if (Users.compareTeams(decisions[msg.sender].winner, affTeam)) affBallots++; \n          else negBallots++;\n        }\n        \n       \n        // if (isElimRound) emit winnerDetermined()\n        \n        if (affBallots > numJudges/2) return affTeam;\n        else return negTeam;\n        \n    }\n    \n    \n    \n    \n    function getRFD(address _judgeAddr) public view returns (string memory) {\n        return decisions[_judgeAddr].decision;\n    }\n    \n    modifier onlyJudges {\n        require(judges[msg.sender] == true);\n        _;\n    }\n}",
  "sourcePath": "/Users/joshweintraub/Debat-eth/contracts/Debate.sol",
  "compiler": {
    "name": "solc",
    "version": "0.7.6+commit.7338295f.Linux.g++"
  },
  "schemaVersion": "3.3.3",
  "updatedAt": "2021-02-10T05:50:20.124Z",
  "devdoc": {
    "kind": "dev",
    "methods": {},
    "version": 1
  },
  "userdoc": {
    "kind": "user",
    "methods": {},
    "version": 1
  }
}