{
  "contractName": "Round",
  "abi": [
    {
      "inputs": [
        {
          "internalType": "int256",
          "name": "_roundNum",
          "type": "int256"
        },
        {
          "components": [
            {
              "components": [
                {
                  "internalType": "string",
                  "name": "name",
                  "type": "string"
                },
                {
                  "internalType": "address payable",
                  "name": "addr",
                  "type": "address"
                },
                {
                  "internalType": "uint256",
                  "name": "totalSpeaks",
                  "type": "uint256"
                },
                {
                  "internalType": "uint256[]",
                  "name": "speaks",
                  "type": "uint256[]"
                }
              ],
              "internalType": "struct Users.Debater",
              "name": "debater1",
              "type": "tuple"
            },
            {
              "components": [
                {
                  "internalType": "string",
                  "name": "name",
                  "type": "string"
                },
                {
                  "internalType": "address payable",
                  "name": "addr",
                  "type": "address"
                },
                {
                  "internalType": "uint256",
                  "name": "totalSpeaks",
                  "type": "uint256"
                },
                {
                  "internalType": "uint256[]",
                  "name": "speaks",
                  "type": "uint256[]"
                }
              ],
              "internalType": "struct Users.Debater",
              "name": "debater2",
              "type": "tuple"
            },
            {
              "internalType": "string",
              "name": "teamCode",
              "type": "string"
            },
            {
              "internalType": "uint256",
              "name": "totalSpeaks",
              "type": "uint256"
            },
            {
              "internalType": "uint256",
              "name": "wins",
              "type": "uint256"
            }
          ],
          "internalType": "struct Users.Team[]",
          "name": "_teams",
          "type": "tuple[]"
        },
        {
          "components": [
            {
              "internalType": "address payable",
              "name": "judgeAddr",
              "type": "address"
            },
            {
              "internalType": "string",
              "name": "name",
              "type": "string"
            },
            {
              "internalType": "uint256",
              "name": "roundsRemaining",
              "type": "uint256"
            }
          ],
          "internalType": "struct Users.Judge[]",
          "name": "_judges",
          "type": "tuple[]"
        }
      ],
      "stateMutability": "nonpayable",
      "type": "constructor"
    },
    {
      "inputs": [
        {
          "internalType": "uint256",
          "name": "",
          "type": "uint256"
        }
      ],
      "name": "debates",
      "outputs": [
        {
          "internalType": "contract Debate",
          "name": "",
          "type": "address"
        }
      ],
      "stateMutability": "view",
      "type": "function"
    },
    {
      "inputs": [
        {
          "internalType": "uint256",
          "name": "",
          "type": "uint256"
        }
      ],
      "name": "judges",
      "outputs": [
        {
          "internalType": "address payable",
          "name": "judgeAddr",
          "type": "address"
        },
        {
          "internalType": "string",
          "name": "name",
          "type": "string"
        },
        {
          "internalType": "uint256",
          "name": "roundsRemaining",
          "type": "uint256"
        }
      ],
      "stateMutability": "view",
      "type": "function"
    },
    {
      "inputs": [],
      "name": "roundNum",
      "outputs": [
        {
          "internalType": "int256",
          "name": "",
          "type": "int256"
        }
      ],
      "stateMutability": "view",
      "type": "function"
    },
    {
      "inputs": [
        {
          "internalType": "uint256",
          "name": "",
          "type": "uint256"
        }
      ],
      "name": "teams",
      "outputs": [
        {
          "components": [
            {
              "internalType": "string",
              "name": "name",
              "type": "string"
            },
            {
              "internalType": "address payable",
              "name": "addr",
              "type": "address"
            },
            {
              "internalType": "uint256",
              "name": "totalSpeaks",
              "type": "uint256"
            },
            {
              "internalType": "uint256[]",
              "name": "speaks",
              "type": "uint256[]"
            }
          ],
          "internalType": "struct Users.Debater",
          "name": "debater1",
          "type": "tuple"
        },
        {
          "components": [
            {
              "internalType": "string",
              "name": "name",
              "type": "string"
            },
            {
              "internalType": "address payable",
              "name": "addr",
              "type": "address"
            },
            {
              "internalType": "uint256",
              "name": "totalSpeaks",
              "type": "uint256"
            },
            {
              "internalType": "uint256[]",
              "name": "speaks",
              "type": "uint256[]"
            }
          ],
          "internalType": "struct Users.Debater",
          "name": "debater2",
          "type": "tuple"
        },
        {
          "internalType": "string",
          "name": "teamCode",
          "type": "string"
        },
        {
          "internalType": "uint256",
          "name": "totalSpeaks",
          "type": "uint256"
        },
        {
          "internalType": "uint256",
          "name": "wins",
          "type": "uint256"
        }
      ],
      "stateMutability": "view",
      "type": "function"
    },
    {
      "inputs": [
        {
          "components": [
            {
              "components": [
                {
                  "internalType": "string",
                  "name": "name",
                  "type": "string"
                },
                {
                  "internalType": "address payable",
                  "name": "addr",
                  "type": "address"
                },
                {
                  "internalType": "uint256",
                  "name": "totalSpeaks",
                  "type": "uint256"
                },
                {
                  "internalType": "uint256[]",
                  "name": "speaks",
                  "type": "uint256[]"
                }
              ],
              "internalType": "struct Users.Debater",
              "name": "debater1",
              "type": "tuple"
            },
            {
              "components": [
                {
                  "internalType": "string",
                  "name": "name",
                  "type": "string"
                },
                {
                  "internalType": "address payable",
                  "name": "addr",
                  "type": "address"
                },
                {
                  "internalType": "uint256",
                  "name": "totalSpeaks",
                  "type": "uint256"
                },
                {
                  "internalType": "uint256[]",
                  "name": "speaks",
                  "type": "uint256[]"
                }
              ],
              "internalType": "struct Users.Debater",
              "name": "debater2",
              "type": "tuple"
            },
            {
              "internalType": "string",
              "name": "teamCode",
              "type": "string"
            },
            {
              "internalType": "uint256",
              "name": "totalSpeaks",
              "type": "uint256"
            },
            {
              "internalType": "uint256",
              "name": "wins",
              "type": "uint256"
            }
          ],
          "internalType": "struct Users.Team",
          "name": "affTeam",
          "type": "tuple"
        },
        {
          "components": [
            {
              "components": [
                {
                  "internalType": "string",
                  "name": "name",
                  "type": "string"
                },
                {
                  "internalType": "address payable",
                  "name": "addr",
                  "type": "address"
                },
                {
                  "internalType": "uint256",
                  "name": "totalSpeaks",
                  "type": "uint256"
                },
                {
                  "internalType": "uint256[]",
                  "name": "speaks",
                  "type": "uint256[]"
                }
              ],
              "internalType": "struct Users.Debater",
              "name": "debater1",
              "type": "tuple"
            },
            {
              "components": [
                {
                  "internalType": "string",
                  "name": "name",
                  "type": "string"
                },
                {
                  "internalType": "address payable",
                  "name": "addr",
                  "type": "address"
                },
                {
                  "internalType": "uint256",
                  "name": "totalSpeaks",
                  "type": "uint256"
                },
                {
                  "internalType": "uint256[]",
                  "name": "speaks",
                  "type": "uint256[]"
                }
              ],
              "internalType": "struct Users.Debater",
              "name": "debater2",
              "type": "tuple"
            },
            {
              "internalType": "string",
              "name": "teamCode",
              "type": "string"
            },
            {
              "internalType": "uint256",
              "name": "totalSpeaks",
              "type": "uint256"
            },
            {
              "internalType": "uint256",
              "name": "wins",
              "type": "uint256"
            }
          ],
          "internalType": "struct Users.Team",
          "name": "negTeam",
          "type": "tuple"
        },
        {
          "components": [
            {
              "internalType": "address payable",
              "name": "judgeAddr",
              "type": "address"
            },
            {
              "internalType": "string",
              "name": "name",
              "type": "string"
            },
            {
              "internalType": "uint256",
              "name": "roundsRemaining",
              "type": "uint256"
            }
          ],
          "internalType": "struct Users.Judge[]",
          "name": "_judges",
          "type": "tuple[]"
        },
        {
          "internalType": "string",
          "name": "roomNum",
          "type": "string"
        }
      ],
      "name": "createRound",
      "outputs": [
        {
          "internalType": "contract Debate[]",
          "name": "",
          "type": "address[]"
        }
      ],
      "stateMutability": "nonpayable",
      "type": "function"
    }
  ],
  "bytecode": "0x60806040523480156200001157600080fd5b5060405162004f2238038062004f228339818101604052810190620000379190620004d7565b826001819055505050506200074e565b60006200005e620000588462000593565b6200055f565b9050808382526020820190508260005b85811015620000a257815185016200008788826200035e565b8452602084019350602083019250506001810190506200006e565b5050509392505050565b6000620000c3620000bd84620005c2565b6200055f565b9050808382526020820190508260005b85811015620001075781518501620000ec8882620003e0565b845260208401935060208301925050600181019050620000d3565b5050509392505050565b6000620001286200012284620005f1565b6200055f565b905080838252602082019050828560208602820111156200014857600080fd5b60005b858110156200017c5781620001618882620004c0565b8452602084019350602083019250506001810190506200014b565b5050509392505050565b60006200019d620001978462000620565b6200055f565b905082815260208101848484011115620001b657600080fd5b620001c38482856200069b565b509392505050565b600081519050620001dc8162000700565b92915050565b600082601f830112620001f457600080fd5b81516200020684826020860162000047565b91505092915050565b600082601f8301126200022157600080fd5b815162000233848260208601620000ac565b91505092915050565b600082601f8301126200024e57600080fd5b81516200026084826020860162000111565b91505092915050565b6000815190506200027a816200071a565b92915050565b600082601f8301126200029257600080fd5b8151620002a484826020860162000186565b91505092915050565b600060808284031215620002c057600080fd5b620002cc60806200055f565b9050600082015167ffffffffffffffff811115620002e957600080fd5b620002f78482850162000280565b60008301525060206200030d84828501620001cb565b60208301525060406200032384828501620004c0565b604083015250606082015167ffffffffffffffff8111156200034457600080fd5b62000352848285016200023c565b60608301525092915050565b6000606082840312156200037157600080fd5b6200037d60606200055f565b905060006200038f84828501620001cb565b600083015250602082015167ffffffffffffffff811115620003b057600080fd5b620003be8482850162000280565b6020830152506040620003d484828501620004c0565b60408301525092915050565b600060a08284031215620003f357600080fd5b620003ff60a06200055f565b9050600082015167ffffffffffffffff8111156200041c57600080fd5b6200042a84828501620002ad565b600083015250602082015167ffffffffffffffff8111156200044b57600080fd5b6200045984828501620002ad565b602083015250604082015167ffffffffffffffff8111156200047a57600080fd5b620004888482850162000280565b60408301525060606200049e84828501620004c0565b6060830152506080620004b484828501620004c0565b60808301525092915050565b600081519050620004d18162000734565b92915050565b600080600060608486031215620004ed57600080fd5b6000620004fd8682870162000269565b935050602084015167ffffffffffffffff8111156200051b57600080fd5b62000529868287016200020f565b925050604084015167ffffffffffffffff8111156200054757600080fd5b6200055586828701620001e2565b9150509250925092565b6000604051905081810181811067ffffffffffffffff82111715620005895762000588620006d1565b5b8060405250919050565b600067ffffffffffffffff821115620005b157620005b0620006d1565b5b602082029050602081019050919050565b600067ffffffffffffffff821115620005e057620005df620006d1565b5b602082029050602081019050919050565b600067ffffffffffffffff8211156200060f576200060e620006d1565b5b602082029050602081019050919050565b600067ffffffffffffffff8211156200063e576200063d620006d1565b5b601f19601f8301169050602081019050919050565b6000620006608262000671565b9050919050565b6000819050919050565b600073ffffffffffffffffffffffffffffffffffffffff82169050919050565b6000819050919050565b60005b83811015620006bb5780820151818401526020810190506200069e565b83811115620006cb576000848401525b50505050565b7f4e487b7100000000000000000000000000000000000000000000000000000000600052604160045260246000fd5b6200070b8162000653565b81146200071757600080fd5b50565b620007258162000667565b81146200073157600080fd5b50565b6200073f8162000691565b81146200074b57600080fd5b50565b6147c4806200075e6000396000f3fe60806040523480156200001157600080fd5b50600436106200007b576000357c010000000000000000000000000000000000000000000000000000000090048063119b22b314620000805780633ed2b77a14620000a257806359758fcf14620000dc578063b06b03681462000112578063f96f7dc3146200014a575b600080fd5b6200008a62000180565b604051620000999190620010de565b60405180910390f35b620000c06004803603810190620000ba919062000bbc565b62000186565b604051620000d3959493929190620010fb565b60405180910390f35b620000fa6004803603810190620000f4919062000bbc565b62000519565b604051620001099190620010c1565b60405180910390f35b6200013060048036038101906200012a919062000bbc565b62000559565b604051620001419392919062001059565b60405180910390f35b62000168600480360381019062000162919062000aec565b62000644565b6040516200017791906200109d565b60405180910390f35b60015481565b600281815481106200019757600080fd5b90600052602060002090600b020160009150905080600001604051806080016040529081600082018054620001cc906200144c565b80601f0160208091040260200160405190810160405280929190818152602001828054620001fa906200144c565b80156200024b5780601f106200021f576101008083540402835291602001916200024b565b820191906000526020600020905b8154815290600101906020018083116200022d57829003601f168201915b505050505081526020016001820160009054906101000a900473ffffffffffffffffffffffffffffffffffffffff1673ffffffffffffffffffffffffffffffffffffffff1673ffffffffffffffffffffffffffffffffffffffff16815260200160028201548152602001600382018054806020026020016040519081016040528092919081815260200182805480156200030557602002820191906000526020600020905b815481526020019060010190808311620002f0575b505050505081525050908060040160405180608001604052908160008201805462000330906200144c565b80601f01602080910402602001604051908101604052809291908181526020018280546200035e906200144c565b8015620003af5780601f106200038357610100808354040283529160200191620003af565b820191906000526020600020905b8154815290600101906020018083116200039157829003601f168201915b505050505081526020016001820160009054906101000a900473ffffffffffffffffffffffffffffffffffffffff1673ffffffffffffffffffffffffffffffffffffffff1673ffffffffffffffffffffffffffffffffffffffff16815260200160028201548152602001600382018054806020026020016040519081016040528092919081815260200182805480156200046957602002820191906000526020600020905b81548152602001906001019080831162000454575b5050505050815250509080600801805462000484906200144c565b80601f0160208091040260200160405190810160405280929190818152602001828054620004b2906200144c565b8015620005035780601f10620004d75761010080835404028352916020019162000503565b820191906000526020600020905b815481529060010190602001808311620004e557829003601f168201915b50505050509080600901549080600a0154905085565b600081815481106200052a57600080fd5b906000526020600020016000915054906101000a900473ffffffffffffffffffffffffffffffffffffffff1681565b600381815481106200056a57600080fd5b90600052602060002090600302016000915090508060000160009054906101000a900473ffffffffffffffffffffffffffffffffffffffff1690806001018054620005b5906200144c565b80601f0160208091040260200160405190810160405280929190818152602001828054620005e3906200144c565b8015620006345780601f10620006085761010080835404028352916020019162000634565b820191906000526020600020905b8154815290600101906020018083116200061657829003601f168201915b5050505050908060020154905083565b6060600085858585336040516200065b90620006f7565b6200066b9594939291906200116d565b604051809103906000f08015801562000688573d6000803e3d6000fd5b5090506000819080600181540180825580915050600190039060005260206000200160009091909190916101000a81548173ffffffffffffffffffffffffffffffffffffffff021916908373ffffffffffffffffffffffffffffffffffffffff16021790555050949350505050565b613269806200152683390190565b60006200071c62000716846200121a565b620011e6565b9050808382526020820190508260005b8581101562000760578135850162000745888262000973565b8452602084019350602083019250506001810190506200072c565b5050509392505050565b6000620007816200077b8462001249565b620011e6565b90508083825260208201905082856020860282011115620007a157600080fd5b60005b85811015620007d55781620007ba888262000ad5565b845260208401935060208301925050600181019050620007a4565b5050509392505050565b6000620007f6620007f08462001278565b620011e6565b9050828152602081018484840111156200080f57600080fd5b6200081c84828562001407565b509392505050565b6000813590506200083581620014f1565b92915050565b600082601f8301126200084d57600080fd5b81356200085f84826020860162000705565b91505092915050565b600082601f8301126200087a57600080fd5b81356200088c8482602086016200076a565b91505092915050565b600082601f830112620008a757600080fd5b8135620008b9848260208601620007df565b91505092915050565b600060808284031215620008d557600080fd5b620008e16080620011e6565b9050600082013567ffffffffffffffff811115620008fe57600080fd5b6200090c8482850162000895565b6000830152506020620009228482850162000824565b6020830152506040620009388482850162000ad5565b604083015250606082013567ffffffffffffffff8111156200095957600080fd5b620009678482850162000868565b60608301525092915050565b6000606082840312156200098657600080fd5b620009926060620011e6565b90506000620009a48482850162000824565b600083015250602082013567ffffffffffffffff811115620009c557600080fd5b620009d38482850162000895565b6020830152506040620009e98482850162000ad5565b60408301525092915050565b600060a0828403121562000a0857600080fd5b62000a1460a0620011e6565b9050600082013567ffffffffffffffff81111562000a3157600080fd5b62000a3f84828501620008c2565b600083015250602082013567ffffffffffffffff81111562000a6057600080fd5b62000a6e84828501620008c2565b602083015250604082013567ffffffffffffffff81111562000a8f57600080fd5b62000a9d8482850162000895565b604083015250606062000ab38482850162000ad5565b606083015250608062000ac98482850162000ad5565b60808301525092915050565b60008135905062000ae6816200150b565b92915050565b6000806000806080858703121562000b0357600080fd5b600085013567ffffffffffffffff81111562000b1e57600080fd5b62000b2c87828801620009f5565b945050602085013567ffffffffffffffff81111562000b4a57600080fd5b62000b5887828801620009f5565b935050604085013567ffffffffffffffff81111562000b7657600080fd5b62000b84878288016200083b565b925050606085013567ffffffffffffffff81111562000ba257600080fd5b62000bb08782880162000895565b91505092959194509250565b60006020828403121562000bcf57600080fd5b600062000bdf8482850162000ad5565b91505092915050565b600062000bf6838362000dba565b60208301905092915050565b600062000c10838362000f53565b905092915050565b600062000c26838362001037565b60208301905092915050565b62000c3d8162001397565b82525050565b62000c4e8162001397565b82525050565b62000c5f8162001383565b82525050565b600062000c7282620012db565b62000c7e81856200132e565b935062000c8b83620012ab565b8060005b8381101562000cc257815162000ca6888262000be8565b975062000cb38362001307565b92505060018101905062000c8f565b5085935050505092915050565b600062000cdc82620012e6565b62000ce881856200133f565b93508360208202850162000cfc85620012bb565b8060005b8581101562000d3e578484038952815162000d1c858262000c02565b945062000d298362001314565b925060208a0199505060018101905062000d00565b50829750879550505050505092915050565b600062000d5d82620012f1565b62000d69818562001350565b935062000d7683620012cb565b8060005b8381101562000dad57815162000d91888262000c18565b975062000d9e8362001321565b92505060018101905062000d7a565b5085935050505092915050565b62000dc581620013df565b82525050565b62000dd681620013df565b82525050565b62000de781620013ab565b82525050565b600062000dfa82620012fc565b62000e06818562001361565b935062000e1881856020860162001416565b62000e2381620014e0565b840191505092915050565b600062000e3b82620012fc565b62000e47818562001372565b935062000e5981856020860162001416565b62000e6481620014e0565b840191505092915050565b6000608083016000830151848203600086015262000e8e828262000ded565b915050602083015162000ea5602086018262000c32565b50604083015162000eba604086018262001037565b506060830151848203606086015262000ed4828262000d50565b9150508091505092915050565b6000608083016000830151848203600086015262000f00828262000ded565b915050602083015162000f17602086018262000c32565b50604083015162000f2c604086018262001037565b506060830151848203606086015262000f46828262000d50565b9150508091505092915050565b600060608301600083015162000f6d600086018262000c32565b506020830151848203602086015262000f87828262000ded565b915050604083015162000f9e604086018262001037565b508091505092915050565b600060a083016000830151848203600086015262000fc8828262000e6f565b9150506020830151848203602086015262000fe4828262000e6f565b9150506040830151848203604086015262001000828262000ded565b915050606083015162001017606086018262001037565b5060808301516200102c608086018262001037565b508091505092915050565b6200104281620013d5565b82525050565b6200105381620013d5565b82525050565b600060608201905062001070600083018662000c43565b818103602083015262001084818562000e2e565b905062001095604083018462001048565b949350505050565b60006020820190508181036000830152620010b9818462000c65565b905092915050565b6000602082019050620010d8600083018462000dcb565b92915050565b6000602082019050620010f5600083018462000ddc565b92915050565b600060a082019050818103600083015262001117818862000ee1565b905081810360208301526200112d818762000ee1565b9050818103604083015262001143818662000e2e565b905062001154606083018562001048565b62001163608083018462001048565b9695505050505050565b600060a082019050818103600083015262001189818862000fa9565b905081810360208301526200119f818762000fa9565b90508181036040830152620011b5818662000ccf565b90508181036060830152620011cb818562000e2e565b9050620011dc608083018462000c54565b9695505050505050565b6000604051905081810181811067ffffffffffffffff8211171562001210576200120f620014b1565b5b8060405250919050565b600067ffffffffffffffff821115620012385762001237620014b1565b5b602082029050602081019050919050565b600067ffffffffffffffff821115620012675762001266620014b1565b5b602082029050602081019050919050565b600067ffffffffffffffff821115620012965762001295620014b1565b5b601f19601f8301169050602081019050919050565b6000819050602082019050919050565b6000819050602082019050919050565b6000819050602082019050919050565b600081519050919050565b600081519050919050565b600081519050919050565b600081519050919050565b6000602082019050919050565b6000602082019050919050565b6000602082019050919050565b600082825260208201905092915050565b600082825260208201905092915050565b600082825260208201905092915050565b600082825260208201905092915050565b600082825260208201905092915050565b60006200139082620013b5565b9050919050565b6000620013a482620013b5565b9050919050565b6000819050919050565b600073ffffffffffffffffffffffffffffffffffffffff82169050919050565b6000819050919050565b6000620013ec82620013f3565b9050919050565b60006200140082620013b5565b9050919050565b82818337600083830152505050565b60005b838110156200143657808201518184015260208101905062001419565b8381111562001446576000848401525b50505050565b600060028204905060018216806200146557607f821691505b602082108114156200147c576200147b62001482565b5b50919050565b7f4e487b7100000000000000000000000000000000000000000000000000000000600052602260045260246000fd5b7f4e487b7100000000000000000000000000000000000000000000000000000000600052604160045260246000fd5b6000601f19601f8301169050919050565b620014fc8162001397565b81146200150857600080fd5b50565b6200151681620013d5565b81146200152257600080fd5b5056fe60806040526000602560006101000a81548160ff021916908315150217905550600060285560006029556000602b60006101000a81548160ff0219169083151502179055503480156200005157600080fd5b506040516200326938038062003269833981810160405281019062000077919062000aa7565b84600080820151816000016000820151816000019080519060200190620000a0929190620005a7565b5060208201518160010160006101000a81548173ffffffffffffffffffffffffffffffffffffffff021916908373ffffffffffffffffffffffffffffffffffffffff1602179055506040820151816002015560608201518160030190805190602001906200011092919062000638565b50505060208201518160040160008201518160000190805190602001906200013a929190620005a7565b5060208201518160010160006101000a81548173ffffffffffffffffffffffffffffffffffffffff021916908373ffffffffffffffffffffffffffffffffffffffff160217905550604082015181600201556060820151816003019080519060200190620001aa92919062000638565b5050506040820151816008019080519060200190620001cb929190620005a7565b5060608201518160090155608082015181600a015590505083600b60008201518160000160008201518160000190805190602001906200020d929190620005a7565b5060208201518160010160006101000a81548173ffffffffffffffffffffffffffffffffffffffff021916908373ffffffffffffffffffffffffffffffffffffffff1602179055506040820151816002015560608201518160030190805190602001906200027d92919062000638565b5050506020820151816004016000820151816000019080519060200190620002a7929190620005a7565b5060208201518160010160006101000a81548173ffffffffffffffffffffffffffffffffffffffff021916908373ffffffffffffffffffffffffffffffffffffffff1602179055506040820151816002015560608201518160030190805190602001906200031792919062000638565b505050604082015181600801908051906020019062000338929190620005a7565b5060608201518160090155608082015181600a015590505082516018819055508251602781905550816024908051906020019062000378929190620005a7565b5033602660006101000a81548173ffffffffffffffffffffffffffffffffffffffff021916908373ffffffffffffffffffffffffffffffffffffffff16021790555080602560016101000a81548173ffffffffffffffffffffffffffffffffffffffff021916908373ffffffffffffffffffffffffffffffffffffffff16021790555060005b83518110156200059b5760016016600086848151811062000448577f4e487b7100000000000000000000000000000000000000000000000000000000600052603260045260246000fd5b60200260200101516000015173ffffffffffffffffffffffffffffffffffffffff1673ffffffffffffffffffffffffffffffffffffffff16815260200190815260200160002060006101000a81548160ff021916908315150217905550838181518110620004df577f4e487b7100000000000000000000000000000000000000000000000000000000600052603260045260246000fd5b6020026020010151602001516017600086848151811062000529577f4e487b7100000000000000000000000000000000000000000000000000000000600052603260045260246000fd5b60200260200101516000015173ffffffffffffffffffffffffffffffffffffffff1673ffffffffffffffffffffffffffffffffffffffff168152602001908152602001600020908051906020019062000584929190620005a7565b508080620005929062000d10565b915050620003fe565b50505050505062000e39565b828054620005b59062000cda565b90600052602060002090601f016020900481019282620005d9576000855562000625565b82601f10620005f457805160ff191683800117855562000625565b8280016001018555821562000625579182015b828111156200062457825182559160200191906001019062000607565b5b5090506200063491906200068a565b5090565b82805482825590600052602060002090810192821562000677579160200282015b828111156200067657825182559160200191906001019062000659565b5b5090506200068691906200068a565b5090565b5b80821115620006a55760008160009055506001016200068b565b5090565b6000620006c0620006ba8462000bc1565b62000b8d565b9050808382526020820190508260005b85811015620007045781518501620006e988826200092e565b845260208401935060208301925050600181019050620006d0565b5050509392505050565b6000620007256200071f8462000bf0565b62000b8d565b905080838252602082019050828560208602820111156200074557600080fd5b60005b858110156200077957816200075e888262000a90565b84526020840193506020830192505060018101905062000748565b5050509392505050565b60006200079a620007948462000c1f565b62000b8d565b905082815260208101848484011115620007b357600080fd5b620007c084828562000ca4565b509392505050565b600081519050620007d98162000deb565b92915050565b600081519050620007f08162000e05565b92915050565b600082601f8301126200080857600080fd5b81516200081a848260208601620006a9565b91505092915050565b600082601f8301126200083557600080fd5b8151620008478482602086016200070e565b91505092915050565b600082601f8301126200086257600080fd5b81516200087484826020860162000783565b91505092915050565b6000608082840312156200089057600080fd5b6200089c608062000b8d565b9050600082015167ffffffffffffffff811115620008b957600080fd5b620008c78482850162000850565b6000830152506020620008dd84828501620007df565b6020830152506040620008f38482850162000a90565b604083015250606082015167ffffffffffffffff8111156200091457600080fd5b620009228482850162000823565b60608301525092915050565b6000606082840312156200094157600080fd5b6200094d606062000b8d565b905060006200095f84828501620007df565b600083015250602082015167ffffffffffffffff8111156200098057600080fd5b6200098e8482850162000850565b6020830152506040620009a48482850162000a90565b60408301525092915050565b600060a08284031215620009c357600080fd5b620009cf60a062000b8d565b9050600082015167ffffffffffffffff811115620009ec57600080fd5b620009fa848285016200087d565b600083015250602082015167ffffffffffffffff81111562000a1b57600080fd5b62000a29848285016200087d565b602083015250604082015167ffffffffffffffff81111562000a4a57600080fd5b62000a588482850162000850565b604083015250606062000a6e8482850162000a90565b606083015250608062000a848482850162000a90565b60808301525092915050565b60008151905062000aa18162000e1f565b92915050565b600080600080600060a0868803121562000ac057600080fd5b600086015167ffffffffffffffff81111562000adb57600080fd5b62000ae988828901620009b0565b955050602086015167ffffffffffffffff81111562000b0757600080fd5b62000b1588828901620009b0565b945050604086015167ffffffffffffffff81111562000b3357600080fd5b62000b4188828901620007f6565b935050606086015167ffffffffffffffff81111562000b5f57600080fd5b62000b6d8882890162000850565b925050608062000b8088828901620007c8565b9150509295509295909350565b6000604051905081810181811067ffffffffffffffff8211171562000bb75762000bb662000dbc565b5b8060405250919050565b600067ffffffffffffffff82111562000bdf5762000bde62000dbc565b5b602082029050602081019050919050565b600067ffffffffffffffff82111562000c0e5762000c0d62000dbc565b5b602082029050602081019050919050565b600067ffffffffffffffff82111562000c3d5762000c3c62000dbc565b5b601f19601f8301169050602081019050919050565b600062000c5f8262000c7a565b9050919050565b600062000c738262000c7a565b9050919050565b600073ffffffffffffffffffffffffffffffffffffffff82169050919050565b6000819050919050565b60005b8381101562000cc457808201518184015260208101905062000ca7565b8381111562000cd4576000848401525b50505050565b6000600282049050600182168062000cf357607f821691505b6020821081141562000d0a5762000d0962000d8d565b5b50919050565b600062000d1d8262000c9a565b91507fffffffffffffffffffffffffffffffffffffffffffffffffffffffffffffffff82141562000d535762000d5262000d5e565b5b600182019050919050565b7f4e487b7100000000000000000000000000000000000000000000000000000000600052601160045260246000fd5b7f4e487b7100000000000000000000000000000000000000000000000000000000600052602260045260246000fd5b7f4e487b7100000000000000000000000000000000000000000000000000000000600052604160045260246000fd5b62000df68162000c52565b811462000e0257600080fd5b50565b62000e108162000c66565b811462000e1c57600080fd5b50565b62000e2a8162000c9a565b811462000e3657600080fd5b50565b6124208062000e496000396000f3fe608060405234801561001057600080fd5b506004361061007f576000357c01000000000000000000000000000000000000000000000000000000009004806304128097146100845780630d359931146100b45780633eed31fe146100e457806355e3f086146101025780638422a2f21461010c578063b618dfe31461013c575b600080fd5b61009e60048036038101906100999190611706565b61016c565b6040516100ab9190611e7c565b60405180910390f35b6100ce60048036038101906100c991906116b4565b6107ab565b6040516100db9190611e7c565b60405180910390f35b6100ec61084b565b6040516100f99190611f5f565b60405180910390f35b61010a610851565b005b610126600480360381019061012191906116b4565b6108cb565b6040516101339190611e61565b60405180910390f35b610156600480360381019061015191906116b4565b6108eb565b6040516101639190611e7c565b60405180910390f35b606060011515601660003373ffffffffffffffffffffffffffffffffffffffff1673ffffffffffffffffffffffffffffffffffffffff16815260200190815260200160002060009054906101000a900460ff161515146101cb57600080fd5b6040518060600160405280838152602001848152602001601760003373ffffffffffffffffffffffffffffffffffffffff1673ffffffffffffffffffffffffffffffffffffffff168152602001908152602001600020805461022c906121f2565b80601f0160208091040260200160405190810160405280929190818152602001828054610258906121f2565b80156102a55780601f1061027a576101008083540402835291602001916102a5565b820191906000526020600020905b81548152906001019060200180831161028857829003601f168201915b5050505050815250602a60003373ffffffffffffffffffffffffffffffffffffffff1673ffffffffffffffffffffffffffffffffffffffff168152602001908152602001600020600082015181600001600082015181600001600082015181600001908051906020019061031a92919061120d565b5060208201518160010160006101000a81548173ffffffffffffffffffffffffffffffffffffffff021916908373ffffffffffffffffffffffffffffffffffffffff160217905550604082015181600201556060820151816003019080519060200190610388929190611293565b50505060208201518160040160008201518160000190805190602001906103b092919061120d565b5060208201518160010160006101000a81548173ffffffffffffffffffffffffffffffffffffffff021916908373ffffffffffffffffffffffffffffffffffffffff16021790555060408201518160020155606082015181600301908051906020019061041e929190611293565b505050604082015181600801908051906020019061043d92919061120d565b5060608201518160090155608082015181600a01555050602082015181600b01908051906020019061047092919061120d565b50604082015181600c01908051906020019061048d92919061120d565b509050507e044fd98dab5233a736bcb7e8a071096a1ae13617f4ff08392d95cd06ea03d0601760003373ffffffffffffffffffffffffffffffffffffffff1673ffffffffffffffffffffffffffffffffffffffff168152602001908152602001600020848460405161050193929190611e9e565b60405180910390a16027600081548092919061051c906121c8565b9190505550600060275414156106d7576105346109bf565b6019600082015181600001600082015181600001908051906020019061055b92919061120d565b5060208201518160010160006101000a81548173ffffffffffffffffffffffffffffffffffffffff021916908373ffffffffffffffffffffffffffffffffffffffff1602179055506040820151816002015560608201518160030190805190602001906105c9929190611293565b50505060208201518160040160008201518160000190805190602001906105f192919061120d565b5060208201518160010160006101000a81548173ffffffffffffffffffffffffffffffffffffffff021916908373ffffffffffffffffffffffffffffffffffffffff16021790555060408201518160020155606082015181600301908051906020019061065f929190611293565b505050604082015181600801908051906020019061067e92919061120d565b5060608201518160090155608082015181600a01559050507f691e92065d5666e361ad541f92e378e50d6678fda8c199de490cef64f129159260196028546029546040516106ce93929190611f21565b60405180910390a15b602a60003373ffffffffffffffffffffffffffffffffffffffff1673ffffffffffffffffffffffffffffffffffffffff168152602001908152602001600020600b018054610724906121f2565b80601f0160208091040260200160405190810160405280929190818152602001828054610750906121f2565b801561079d5780601f106107725761010080835404028352916020019161079d565b820191906000526020600020905b81548152906001019060200180831161078057829003601f168201915b505050505090509392505050565b601760205280600052604060002060009150905080546107ca906121f2565b80601f01602080910402602001604051908101604052809291908181526020018280546107f6906121f2565b80156108435780601f1061081857610100808354040283529160200191610843565b820191906000526020600020905b81548152906001019060200180831161082657829003601f168201915b505050505081565b60185481565b60011515601660003373ffffffffffffffffffffffffffffffffffffffff1673ffffffffffffffffffffffffffffffffffffffff16815260200190815260200160002060009054906101000a900460ff161515146108ae57600080fd5b6001602560006101000a81548160ff021916908315150217905550565b60166020528060005260406000206000915054906101000a900460ff1681565b6060602a60008373ffffffffffffffffffffffffffffffffffffffff1673ffffffffffffffffffffffffffffffffffffffff168152602001908152602001600020600b01805461093a906121f2565b80601f0160208091040260200160405190810160405280929190818152602001828054610966906121f2565b80156109b35780601f10610988576101008083540402835291602001916109b3565b820191906000526020600020905b81548152906001019060200180831161099657829003601f168201915b50505050509050919050565b6109c76112e0565b60005b601854811015610b095773__Users_________________________________63bb1d442f602a60003373ffffffffffffffffffffffffffffffffffffffff1673ffffffffffffffffffffffffffffffffffffffff16815260200190815260200160002060000160006040518363ffffffff167c0100000000000000000000000000000000000000000000000000000000028152600401610a6b929190611eea565b60206040518083038186803b158015610a8357600080fd5b505af4158015610a97573d6000803e3d6000fd5b505050506040513d601f19601f82011682018060405250810190610abb91906116dd565b15610add5760286000815480929190610ad390612258565b9190505550610af6565b60296000815480929190610af090612258565b91905055505b8080610b0190612258565b9150506109ca565b506002601854610b1991906120d1565b6028541115610e985760006040518060a001604052908160008201604051806080016040529081600082018054610b4f906121f2565b80601f0160208091040260200160405190810160405280929190818152602001828054610b7b906121f2565b8015610bc85780601f10610b9d57610100808354040283529160200191610bc8565b820191906000526020600020905b815481529060010190602001808311610bab57829003601f168201915b505050505081526020016001820160009054906101000a900473ffffffffffffffffffffffffffffffffffffffff1673ffffffffffffffffffffffffffffffffffffffff1673ffffffffffffffffffffffffffffffffffffffff1681526020016002820154815260200160038201805480602002602001604051908101604052809291908181526020018280548015610c8057602002820191906000526020600020905b815481526020019060010190808311610c6c575b505050505081525050815260200160048201604051806080016040529081600082018054610cad906121f2565b80601f0160208091040260200160405190810160405280929190818152602001828054610cd9906121f2565b8015610d265780601f10610cfb57610100808354040283529160200191610d26565b820191906000526020600020905b815481529060010190602001808311610d0957829003601f168201915b505050505081526020016001820160009054906101000a900473ffffffffffffffffffffffffffffffffffffffff1673ffffffffffffffffffffffffffffffffffffffff1673ffffffffffffffffffffffffffffffffffffffff1681526020016002820154815260200160038201805480602002602001604051908101604052809291908181526020018280548015610dde57602002820191906000526020600020905b815481526020019060010190808311610dca575b5050505050815250508152602001600882018054610dfb906121f2565b80601f0160208091040260200160405190810160405280929190818152602001828054610e27906121f2565b8015610e745780601f10610e4957610100808354040283529160200191610e74565b820191906000526020600020905b815481529060010190602001808311610e5757829003601f168201915b5050505050815260200160098201548152602001600a82015481525050905061120a565b600b6040518060a001604052908160008201604051806080016040529081600082018054610ec5906121f2565b80601f0160208091040260200160405190810160405280929190818152602001828054610ef1906121f2565b8015610f3e5780601f10610f1357610100808354040283529160200191610f3e565b820191906000526020600020905b815481529060010190602001808311610f2157829003601f168201915b505050505081526020016001820160009054906101000a900473ffffffffffffffffffffffffffffffffffffffff1673ffffffffffffffffffffffffffffffffffffffff1673ffffffffffffffffffffffffffffffffffffffff1681526020016002820154815260200160038201805480602002602001604051908101604052809291908181526020018280548015610ff657602002820191906000526020600020905b815481526020019060010190808311610fe2575b505050505081525050815260200160048201604051806080016040529081600082018054611023906121f2565b80601f016020809104026020016040519081016040528092919081815260200182805461104f906121f2565b801561109c5780601f106110715761010080835404028352916020019161109c565b820191906000526020600020905b81548152906001019060200180831161107f57829003601f168201915b505050505081526020016001820160009054906101000a900473ffffffffffffffffffffffffffffffffffffffff1673ffffffffffffffffffffffffffffffffffffffff1673ffffffffffffffffffffffffffffffffffffffff168152602001600282015481526020016003820180548060200260200160405190810160405280929190818152602001828054801561115457602002820191906000526020600020905b815481526020019060010190808311611140575b5050505050815250508152602001600882018054611171906121f2565b80601f016020809104026020016040519081016040528092919081815260200182805461119d906121f2565b80156111ea5780601f106111bf576101008083540402835291602001916111ea565b820191906000526020600020905b8154815290600101906020018083116111cd57829003601f168201915b5050505050815260200160098201548152602001600a8201548152505090505b90565b828054611219906121f2565b90600052602060002090601f01602090048101928261123b5760008555611282565b82601f1061125457805160ff1916838001178555611282565b82800160010185558215611282579182015b82811115611281578251825591602001919060010190611266565b5b50905061128f919061131b565b5090565b8280548282559060005260206000209081019282156112cf579160200282015b828111156112ce5782518255916020019190600101906112b3565b5b5090506112dc919061131b565b5090565b6040518060a001604052806112f3611338565b8152602001611300611338565b81526020016060815260200160008152602001600081525090565b5b8082111561133457600081600090555060010161131c565b5090565b604051806080016040528060608152602001600073ffffffffffffffffffffffffffffffffffffffff16815260200160008152602001606081525090565b600061138961138484611fab565b611f7a565b905080838252602082019050828560208602820111156113a857600080fd5b60005b858110156113d857816113be888261169f565b8452602084019350602083019250506001810190506113ab565b5050509392505050565b60006113f56113f084611fd7565b611f7a565b90508281526020810184848401111561140d57600080fd5b611418848285612186565b509392505050565b60008135905061142f8161238e565b92915050565b600081359050611444816123a5565b92915050565b600082601f83011261145b57600080fd5b813561146b848260208601611376565b91505092915050565b600081519050611483816123bc565b92915050565b600082601f83011261149a57600080fd5b81356114aa8482602086016113e2565b91505092915050565b6000608082840312156114c557600080fd5b6114cf6080611f7a565b9050600082013567ffffffffffffffff8111156114eb57600080fd5b6114f784828501611489565b600083015250602061150b84828501611435565b602083015250604061151f8482850161169f565b604083015250606082013567ffffffffffffffff81111561153f57600080fd5b61154b8482850161144a565b60608301525092915050565b60006060828403121561156957600080fd5b6115736060611f7a565b9050600061158384828501611435565b600083015250602082013567ffffffffffffffff8111156115a357600080fd5b6115af84828501611489565b60208301525060406115c38482850161169f565b60408301525092915050565b600060a082840312156115e157600080fd5b6115eb60a0611f7a565b9050600082013567ffffffffffffffff81111561160757600080fd5b611613848285016114b3565b600083015250602082013567ffffffffffffffff81111561163357600080fd5b61163f848285016114b3565b602083015250604082013567ffffffffffffffff81111561165f57600080fd5b61166b84828501611489565b604083015250606061167f8482850161169f565b60608301525060806116938482850161169f565b60808301525092915050565b6000813590506116ae816123d3565b92915050565b6000602082840312156116c657600080fd5b60006116d484828501611420565b91505092915050565b6000602082840312156116ef57600080fd5b60006116fd84828501611474565b91505092915050565b60008060006060848603121561171b57600080fd5b600084013567ffffffffffffffff81111561173557600080fd5b61174186828701611557565b935050602084013567ffffffffffffffff81111561175e57600080fd5b61176a86828701611489565b925050604084013567ffffffffffffffff81111561178757600080fd5b611793868287016115cf565b9150509250925092565b60006117a98383611e34565b60208301905092915050565b60006117c18383611e52565b60208301905092915050565b6117d68161213e565b82525050565b6117e58161213e565b82525050565b60006117f682612041565b611800818561207c565b935061180b83612007565b8060005b8381101561183c578151611823888261179d565b975061182e83612062565b92505060018101905061180f565b5085935050505092915050565b60006118548261204c565b61185e818561207c565b935061186983612017565b8060005b838110156118a15761187e8261235d565b611888888261179d565b97506118938361206f565b92505060018101905061186d565b5085935050505092915050565b60006118b98261204c565b6118c3818561208d565b93506118ce83612017565b8060005b83811015611906576118e38261235d565b6118ed88826117b5565b97506118f88361206f565b9250506001810190506118d2565b5085935050505092915050565b61191c81612150565b82525050565b600061192d82612057565b611937818561209e565b9350611947818560208601612195565b61195081612370565b840191505092915050565b600061196682612057565b61197081856120af565b9350611980818560208601612195565b61198981612370565b840191505092915050565b600081546119a1816121f2565b6119ab818661209e565b945060018216600081146119c657600181146119d857611a0b565b60ff1983168652602086019350611a0b565b6119e18561202c565b60005b83811015611a03578154818901526001820191506020810190506119e4565b808801955050505b50505092915050565b60008154611a21816121f2565b611a2b81866120af565b94506001821660008114611a465760018114611a5857611a8b565b60ff1983168652602086019350611a8b565b611a618561202c565b60005b83811015611a8357815481890152600182019150602081019050611a64565b808801955050505b50505092915050565b60008154611aa1816121f2565b611aab81866120c0565b94506001821660008114611ac65760018114611ad857611b0b565b60ff1983168652602086019350611b0b565b611ae18561202c565b60005b83811015611b0357815481890152600182019150602081019050611ae4565b808801955050505b50505092915050565b60006080830160008301518482036000860152611b318282611922565b9150506020830151611b4660208601826117cd565b506040830151611b596040860182611e34565b5060608301518482036060860152611b7182826117eb565b9150508091505092915050565b60006080830160008084018583036000870152611b9b8382611994565b92505060018401549050611bae81612224565b611bbb60208701826117cd565b5060028401549050611bcc8161223e565b611bd96040870182611e34565b50600384018583036060870152611bf08382611849565b925050819250505092915050565b60006080830160008084018583036000870152611c1b8382611a94565b92505060018401549050611c2e81612224565b611c3b60208701826117dc565b5060028401549050611c4c8161223e565b611c596040870182611e52565b50600384018583036060870152611c7083826118ae565b925050819250505092915050565b600060a0830160008301518482036000860152611c9b8282611b14565b91505060208301518482036020860152611cb58282611b14565b91505060408301518482036040860152611ccf8282611922565b9150506060830151611ce46060860182611e34565b506080830151611cf76080860182611e34565b508091505092915050565b600060a0830160008084018583036000870152611d1f8382611b7e565b925050600484018583036020870152611d388382611b7e565b925050600884018583036040870152611d518382611994565b92505060098401549050611d648161223e565b611d716060870182611e34565b50600a8401549050611d828161223e565b611d8f6080870182611e34565b50819250505092915050565b600060a0830160008084018583036000870152611db88382611bfe565b925050600484018583036020870152611dd18382611bfe565b925050600884018583036040870152611dea8382611a94565b92505060098401549050611dfd8161223e565b611e0a6060870182611e52565b50600a8401549050611e1b8161223e565b611e286080870182611e52565b50819250505092915050565b611e3d8161217c565b82525050565b611e4c8161217c565b82525050565b611e5b8161217c565b82525050565b6000602082019050611e766000830184611913565b92915050565b60006020820190508181036000830152611e96818461195b565b905092915050565b60006060820190508181036000830152611eb88186611a14565b90508181036020830152611ecc818561195b565b90508181036040830152611ee08184611c7e565b9050949350505050565b60006040820190508181036000830152611f048185611d9b565b90508181036020830152611f188184611d9b565b90509392505050565b60006060820190508181036000830152611f3b8186611d02565b9050611f4a6020830185611e43565b611f576040830184611e43565b949350505050565b6000602082019050611f746000830184611e43565b92915050565b6000604051905081810181811067ffffffffffffffff82111715611fa157611fa061232e565b5b8060405250919050565b600067ffffffffffffffff821115611fc657611fc561232e565b5b602082029050602081019050919050565b600067ffffffffffffffff821115611ff257611ff161232e565b5b601f19601f8301169050602081019050919050565b6000819050602082019050919050565b60008190508160005260206000209050919050565b60008190508160005260206000209050919050565b600081519050919050565b600081549050919050565b600081519050919050565b6000602082019050919050565b6000600182019050919050565b600082825260208201905092915050565b600082825260208201905092915050565b600082825260208201905092915050565b600082825260208201905092915050565b600082825260208201905092915050565b60006120dc8261217c565b91506120e78361217c565b9250826120f7576120f66122d0565b5b828204905092915050565b600073ffffffffffffffffffffffffffffffffffffffff82169050919050565b6000819050919050565b60006121378261215c565b9050919050565b60006121498261215c565b9050919050565b60008115159050919050565b600073ffffffffffffffffffffffffffffffffffffffff82169050919050565b6000819050919050565b82818337600083830152505050565b60005b838110156121b3578082015181840152602081019050612198565b838111156121c2576000848401525b50505050565b60006121d38261217c565b915060008214156121e7576121e66122a1565b5b600182039050919050565b6000600282049050600182168061220a57607f821691505b6020821081141561221e5761221d6122ff565b5b50919050565b600061223761223283612381565b612102565b9050919050565b600061225161224c83612381565b612122565b9050919050565b60006122638261217c565b91507fffffffffffffffffffffffffffffffffffffffffffffffffffffffffffffffff821415612296576122956122a1565b5b600182019050919050565b7f4e487b7100000000000000000000000000000000000000000000000000000000600052601160045260246000fd5b7f4e487b7100000000000000000000000000000000000000000000000000000000600052601260045260246000fd5b7f4e487b7100000000000000000000000000000000000000000000000000000000600052602260045260246000fd5b7f4e487b7100000000000000000000000000000000000000000000000000000000600052604160045260246000fd5b6000612369825461223e565b9050919050565b6000601f19601f8301169050919050565b6000600182049050919050565b6123978161212c565b81146123a257600080fd5b50565b6123ae8161213e565b81146123b957600080fd5b50565b6123c581612150565b81146123d057600080fd5b50565b6123dc8161217c565b81146123e757600080fd5b5056fea26469706673582212203bfb0827306d4cbbd79f7f1cb45eafadcd272748bdee6f45b4d12c5434857baf64736f6c63430008000033a264697066735822122026057971d8f4ca1f98c469b8318f36feedfe6d7f690f8e37f27ce81eb8893c4e64736f6c63430008000033",
  "immutableReferences": {},
  "source": "pragma solidity ^0.8.0;\n\nimport \"./Debate.sol\";\nimport \"./Users.sol\";\n\ncontract Round {\n    \n    Debate[] public debates; \n    int public roundNum;\n    Users.Team[] public teams;\n    Users.Judge[] public judges;\n    \n    \n    //TODO: Add Modifier for TabDirector\n    \n    constructor(int _roundNum, Users.Team[] memory _teams, Users.Judge[] memory _judges) {\n        roundNum = _roundNum;\n        \n    //     //doSomething();\n        \n    //     //createRound();\n    }\n    \n    \n    function createRound(Users.Team memory affTeam, Users.Team memory negTeam, Users.Judge[] memory _judges, string memory roomNum) public returns(Debate[] memory) {\n        //doSomething();\n        \n        Debate debate = new Debate(affTeam, negTeam, _judges, roomNum, msg.sender);\n        debates.push(debate);\n        // \n        \n    }\n    \n  \n}",
  "sourcePath": "/Users/joshweintraub/Debat-eth/contracts/Round.sol",
  "compiler": {
    "name": "solc",
    "version": "0.8.0+commit.c7dfd78e.Linux.g++"
  },
  "schemaVersion": "3.3.3",
  "updatedAt": "2021-02-10T05:37:27.694Z",
  "devdoc": {
    "kind": "dev",
    "methods": {},
    "version": 1
  },
  "userdoc": {
    "kind": "user",
    "methods": {},
    "version": 1
  }
}