{
  "contractName": "Tournament",
  "abi": [
    {
      "inputs": [
        {
          "internalType": "address payable",
          "name": "_tabDirector",
          "type": "address"
        },
        {
          "internalType": "uint256",
          "name": "_num_prelims",
          "type": "uint256"
        },
        {
          "internalType": "uint256",
          "name": "_registration_fee",
          "type": "uint256"
        },
        {
          "internalType": "string",
          "name": "_tournament_name",
          "type": "string"
        },
        {
          "internalType": "address",
          "name": "_first_verifier",
          "type": "address"
        },
        {
          "internalType": "address",
          "name": "_second_verifier",
          "type": "address"
        }
      ],
      "stateMutability": "nonpayable",
      "type": "constructor"
    },
    {
      "inputs": [],
      "name": "first_verifier",
      "outputs": [
        {
          "internalType": "address",
          "name": "",
          "type": "address"
        }
      ],
      "stateMutability": "view",
      "type": "function"
    },
    {
      "inputs": [],
      "name": "num_prelims",
      "outputs": [
        {
          "internalType": "uint256",
          "name": "",
          "type": "uint256"
        }
      ],
      "stateMutability": "view",
      "type": "function"
    },
    {
      "inputs": [],
      "name": "registration_fee",
      "outputs": [
        {
          "internalType": "uint256",
          "name": "",
          "type": "uint256"
        }
      ],
      "stateMutability": "view",
      "type": "function"
    },
    {
      "inputs": [
        {
          "internalType": "uint256",
          "name": "",
          "type": "uint256"
        }
      ],
      "name": "rounds",
      "outputs": [
        {
          "internalType": "contract Round",
          "name": "",
          "type": "address"
        }
      ],
      "stateMutability": "view",
      "type": "function"
    },
    {
      "inputs": [],
      "name": "second_verifier",
      "outputs": [
        {
          "internalType": "address",
          "name": "",
          "type": "address"
        }
      ],
      "stateMutability": "view",
      "type": "function"
    },
    {
      "inputs": [
        {
          "internalType": "string",
          "name": "teamCode",
          "type": "string"
        },
        {
          "components": [
            {
              "internalType": "string",
              "name": "name",
              "type": "string"
            },
            {
              "internalType": "address payable",
              "name": "addr",
              "type": "address"
            },
            {
              "internalType": "uint256",
              "name": "totalSpeaks",
              "type": "uint256"
            },
            {
              "internalType": "uint256[]",
              "name": "speaks",
              "type": "uint256[]"
            }
          ],
          "internalType": "struct Users.Debater",
          "name": "_debater1",
          "type": "tuple"
        },
        {
          "components": [
            {
              "internalType": "string",
              "name": "name",
              "type": "string"
            },
            {
              "internalType": "address payable",
              "name": "addr",
              "type": "address"
            },
            {
              "internalType": "uint256",
              "name": "totalSpeaks",
              "type": "uint256"
            },
            {
              "internalType": "uint256[]",
              "name": "speaks",
              "type": "uint256[]"
            }
          ],
          "internalType": "struct Users.Debater",
          "name": "_debater2",
          "type": "tuple"
        }
      ],
      "name": "registerTeam",
      "outputs": [],
      "stateMutability": "payable",
      "type": "function"
    },
    {
      "inputs": [
        {
          "internalType": "address",
          "name": "_judgeAddr",
          "type": "address"
        },
        {
          "internalType": "string",
          "name": "_name",
          "type": "string"
        },
        {
          "internalType": "uint256",
          "name": "_roundCommitment",
          "type": "uint256"
        }
      ],
      "name": "registerJudge",
      "outputs": [
        {
          "components": [
            {
              "internalType": "address payable",
              "name": "judgeAddr",
              "type": "address"
            },
            {
              "internalType": "string",
              "name": "name",
              "type": "string"
            },
            {
              "internalType": "uint256",
              "name": "roundsRemaining",
              "type": "uint256"
            }
          ],
          "internalType": "struct Users.Judge",
          "name": "",
          "type": "tuple"
        }
      ],
      "stateMutability": "nonpayable",
      "type": "function"
    },
    {
      "inputs": [
        {
          "internalType": "int256",
          "name": "roundNum",
          "type": "int256"
        }
      ],
      "name": "startRound",
      "outputs": [],
      "stateMutability": "nonpayable",
      "type": "function"
    },
    {
      "inputs": [],
      "name": "startTournament",
      "outputs": [],
      "stateMutability": "nonpayable",
      "type": "function"
    },
    {
      "inputs": [],
      "name": "getRegistrationFee",
      "outputs": [
        {
          "internalType": "uint256",
          "name": "",
          "type": "uint256"
        }
      ],
      "stateMutability": "view",
      "type": "function"
    },
    {
      "inputs": [],
      "name": "verify",
      "outputs": [],
      "stateMutability": "nonpayable",
      "type": "function"
    }
  ],
  "bytecode": "0x60806040526000600460146101000a81548160ff0219169083151502179055506000600560146101000a81548160ff0219169083151502179055506000600860016101000a81548160ff0219169083151502179055503480156200006257600080fd5b506040516200194e3803806200194e8339818101604052810190620000889190620002e5565b84600081905550836007819055508260069080519060200190620000ae9291906200017e565b5085600160006101000a81548173ffffffffffffffffffffffffffffffffffffffff021916908373ffffffffffffffffffffffffffffffffffffffff16021790555081600460006101000a81548173ffffffffffffffffffffffffffffffffffffffff021916908373ffffffffffffffffffffffffffffffffffffffff16021790555080600560006101000a81548173ffffffffffffffffffffffffffffffffffffffff021916908373ffffffffffffffffffffffffffffffffffffffff16021790555050505050505062000565565b8280546200018c9062000483565b90600052602060002090601f016020900481019282620001b05760008555620001fc565b82601f10620001cb57805160ff1916838001178555620001fc565b82800160010185558215620001fc579182015b82811115620001fb578251825591602001919060010190620001de565b5b5090506200020b91906200020f565b5090565b5b808211156200022a57600081600090555060010162000210565b5090565b6000620002456200023f84620003c8565b62000394565b9050828152602081018484840111156200025e57600080fd5b6200026b8482856200044d565b509392505050565b600081519050620002848162000517565b92915050565b6000815190506200029b8162000531565b92915050565b600082601f830112620002b357600080fd5b8151620002c58482602086016200022e565b91505092915050565b600081519050620002df816200054b565b92915050565b60008060008060008060c08789031215620002ff57600080fd5b60006200030f89828a016200028a565b96505060206200032289828a01620002ce565b95505060406200033589828a01620002ce565b945050606087015167ffffffffffffffff8111156200035357600080fd5b6200036189828a01620002a1565b93505060806200037489828a0162000273565b92505060a06200038789828a0162000273565b9150509295509295509295565b6000604051905081810181811067ffffffffffffffff82111715620003be57620003bd620004e8565b5b8060405250919050565b600067ffffffffffffffff821115620003e657620003e5620004e8565b5b601f19601f8301169050602081019050919050565b6000620004088262000423565b9050919050565b60006200041c8262000423565b9050919050565b600073ffffffffffffffffffffffffffffffffffffffff82169050919050565b6000819050919050565b60005b838110156200046d57808201518184015260208101905062000450565b838111156200047d576000848401525b50505050565b600060028204905060018216806200049c57607f821691505b60208210811415620004b357620004b2620004b9565b5b50919050565b7f4e487b7100000000000000000000000000000000000000000000000000000000600052602260045260246000fd5b7f4e487b7100000000000000000000000000000000000000000000000000000000600052604160045260246000fd5b6200052281620003fb565b81146200052e57600080fd5b50565b6200053c816200040f565b81146200054857600080fd5b50565b620005568162000443565b81146200056257600080fd5b50565b6113d980620005756000396000f3fe6080604052600436106100b9576000357c01000000000000000000000000000000000000000000000000000000009004806379bb1f9c1161008157806379bb1f9c146101845780638c65c81f146101af578063a0cc93e8146101ec578063bf559d1114610229578063fc735e9914610240578063fed3b22f14610257576100b9565b80630946e807146100be57806314c73464146100e95780631f8917b6146101125780635040a61f1461012e5780635792e26214610159575b600080fd5b3480156100ca57600080fd5b506100d3610282565b6040516100e091906110b3565b60405180910390f35b3480156100f557600080fd5b50610110600480360381019061010b9190610d0c565b61028c565b005b61012c60048036038101906101279190610d35565b61031f565b005b34801561013a57600080fd5b5061014361051c565b6040516101509190610ffb565b60405180910390f35b34801561016557600080fd5b5061016e610542565b60405161017b91906110b3565b60405180910390f35b34801561019057600080fd5b50610199610548565b6040516101a691906110b3565b60405180910390f35b3480156101bb57600080fd5b506101d660048036038101906101d19190610dcc565b61054e565b6040516101e39190611016565b60405180910390f35b3480156101f857600080fd5b50610213600480360381019061020e9190610ca5565b61058d565b6040516102209190611091565b60405180910390f35b34801561023557600080fd5b5061023e610671565b005b34801561024c57600080fd5b5061025561078f565b005b34801561026357600080fd5b5061026c610962565b6040516102799190610ffb565b60405180910390f35b6000600754905090565b600160009054906101000a900473ffffffffffffffffffffffffffffffffffffffff1673ffffffffffffffffffffffffffffffffffffffff163373ffffffffffffffffffffffffffffffffffffffff161461031c576040517f08c379a000000000000000000000000000000000000000000000000000000000815260040161031390611031565b60405180910390fd5b50565b600754341015610364576040517f08c379a000000000000000000000000000000000000000000000000000000000815260040161035b90611071565b60405180910390fd5b60026040518060a0016040528084815260200183815260200185815260200160008152602001600081525090806001815401808255809150506001900390600052602060002090600b020160009091909190915060008201518160000160008201518160000190805190602001906103dd929190610988565b5060208201518160010160006101000a81548173ffffffffffffffffffffffffffffffffffffffff021916908373ffffffffffffffffffffffffffffffffffffffff16021790555060408201518160020155606082015181600301908051906020019061044b929190610a0e565b5050506020820151816004016000820151816000019080519060200190610473929190610988565b5060208201518160010160006101000a81548173ffffffffffffffffffffffffffffffffffffffff021916908373ffffffffffffffffffffffffffffffffffffffff1602179055506040820151816002015560608201518160030190805190602001906104e1929190610a0e565b5050506040820151816008019080519060200190610500929190610988565b5060608201518160090155608082015181600a01555050505050565b600560009054906101000a900473ffffffffffffffffffffffffffffffffffffffff1681565b60075481565b60005481565b6009818154811061055e57600080fd5b906000526020600020016000915054906101000a900473ffffffffffffffffffffffffffffffffffffffff1681565b610595610a5b565b600060405180606001604052808673ffffffffffffffffffffffffffffffffffffffff168152602001858152602001848152509050600381908060018154018082558091505060019003906000526020600020906003020160009091909190915060008201518160000160006101000a81548173ffffffffffffffffffffffffffffffffffffffff021916908373ffffffffffffffffffffffffffffffffffffffff1602179055506020820151816001019080519060200190610659929190610988565b50604082015181600201555050809150509392505050565b600160009054906101000a900473ffffffffffffffffffffffffffffffffffffffff1673ffffffffffffffffffffffffffffffffffffffff163373ffffffffffffffffffffffffffffffffffffffff1614610701576040517f08c379a00000000000000000000000000000000000000000000000000000000081526004016106f890611031565b60405180910390fd5b600160009054906101000a900473ffffffffffffffffffffffffffffffffffffffff1673ffffffffffffffffffffffffffffffffffffffff166108fc60033073ffffffffffffffffffffffffffffffffffffffff16316107619190611188565b9081150290604051600060405180830381858888f1935050505015801561078c573d6000803e3d6000fd5b50565b600460009054906101000a900473ffffffffffffffffffffffffffffffffffffffff1673ffffffffffffffffffffffffffffffffffffffff163373ffffffffffffffffffffffffffffffffffffffff1614806108385750600560009054906101000a900473ffffffffffffffffffffffffffffffffffffffff1673ffffffffffffffffffffffffffffffffffffffff163373ffffffffffffffffffffffffffffffffffffffff16145b610877576040517f08c379a000000000000000000000000000000000000000000000000000000000815260040161086e90611051565b60405180910390fd5b600460009054906101000a900473ffffffffffffffffffffffffffffffffffffffff1673ffffffffffffffffffffffffffffffffffffffff163373ffffffffffffffffffffffffffffffffffffffff1614156108ed576001600460146101000a81548160ff021916908315150217905550610960565b600560009054906101000a900473ffffffffffffffffffffffffffffffffffffffff1673ffffffffffffffffffffffffffffffffffffffff163373ffffffffffffffffffffffffffffffffffffffff16141561095f576001600560146101000a81548160ff0219169083151502179055505b5b565b600460009054906101000a900473ffffffffffffffffffffffffffffffffffffffff1681565b82805461099490611277565b90600052602060002090601f0160209004810192826109b657600085556109fd565b82601f106109cf57805160ff19168380011785556109fd565b828001600101855582156109fd579182015b828111156109fc5782518255916020019190600101906109e1565b5b509050610a0a9190610a92565b5090565b828054828255906000526020600020908101928215610a4a579160200282015b82811115610a49578251825591602001919060010190610a2e565b5b509050610a579190610a92565b5090565b6040518060600160405280600073ffffffffffffffffffffffffffffffffffffffff16815260200160608152602001600081525090565b5b80821115610aab576000816000905550600101610a93565b5090565b6000610ac2610abd846110ff565b6110ce565b90508083825260208201905082856020860282011115610ae157600080fd5b60005b85811015610b115781610af78882610c90565b845260208401935060208301925050600181019050610ae4565b5050509392505050565b6000610b2e610b298461112b565b6110ce565b905082815260208101848484011115610b4657600080fd5b610b51848285611235565b509392505050565b600081359050610b6881611347565b92915050565b600081359050610b7d8161135e565b92915050565b600082601f830112610b9457600080fd5b8135610ba4848260208601610aaf565b91505092915050565b600081359050610bbc81611375565b92915050565b600082601f830112610bd357600080fd5b8135610be3848260208601610b1b565b91505092915050565b600060808284031215610bfe57600080fd5b610c0860806110ce565b9050600082013567ffffffffffffffff811115610c2457600080fd5b610c3084828501610bc2565b6000830152506020610c4484828501610b6e565b6020830152506040610c5884828501610c90565b604083015250606082013567ffffffffffffffff811115610c7857600080fd5b610c8484828501610b83565b60608301525092915050565b600081359050610c9f8161138c565b92915050565b600080600060608486031215610cba57600080fd5b6000610cc886828701610b59565b935050602084013567ffffffffffffffff811115610ce557600080fd5b610cf186828701610bc2565b9250506040610d0286828701610c90565b9150509250925092565b600060208284031215610d1e57600080fd5b6000610d2c84828501610bad565b91505092915050565b600080600060608486031215610d4a57600080fd5b600084013567ffffffffffffffff811115610d6457600080fd5b610d7086828701610bc2565b935050602084013567ffffffffffffffff811115610d8d57600080fd5b610d9986828701610bec565b925050604084013567ffffffffffffffff811115610db657600080fd5b610dc286828701610bec565b9150509250925092565b600060208284031215610dde57600080fd5b6000610dec84828501610c90565b91505092915050565b610dfe816111cb565b82525050565b610e0d816111b9565b82525050565b610e1c81611211565b82525050565b6000610e2d8261115b565b610e378185611166565b9350610e47818560208601611244565b610e5081611336565b840191505092915050565b6000610e68602d83611177565b91507f4f6e6c792074686520546162204469726563746f722063616e2063616c6c207460008301527f6869732066756e6374696f6e2e000000000000000000000000000000000000006020830152604082019050919050565b6000610ece602983611177565b91507f4e6f7420417574686f72697a656420746f20696d706c656d656e74207468697360008301527f2066756e6374696f6e00000000000000000000000000000000000000000000006020830152604082019050919050565b6000610f34602283611177565b91507f596f757220726567697374726174696f6e5f6665652077617320746f6f206c6f60008301527f772e0000000000000000000000000000000000000000000000000000000000006020830152604082019050919050565b6000606083016000830151610fa56000860182610df5565b5060208301518482036020860152610fbd8282610e22565b9150506040830151610fd26040860182610fdd565b508091505092915050565b610fe681611207565b82525050565b610ff581611207565b82525050565b60006020820190506110106000830184610e04565b92915050565b600060208201905061102b6000830184610e13565b92915050565b6000602082019050818103600083015261104a81610e5b565b9050919050565b6000602082019050818103600083015261106a81610ec1565b9050919050565b6000602082019050818103600083015261108a81610f27565b9050919050565b600060208201905081810360008301526110ab8184610f8d565b905092915050565b60006020820190506110c86000830184610fec565b92915050565b6000604051905081810181811067ffffffffffffffff821117156110f5576110f4611307565b5b8060405250919050565b600067ffffffffffffffff82111561111a57611119611307565b5b602082029050602081019050919050565b600067ffffffffffffffff82111561114657611145611307565b5b601f19601f8301169050602081019050919050565b600081519050919050565b600082825260208201905092915050565b600082825260208201905092915050565b600061119382611207565b915061119e83611207565b9250826111ae576111ad6112a9565b5b828204905092915050565b60006111c4826111e7565b9050919050565b60006111d6826111e7565b9050919050565b6000819050919050565b600073ffffffffffffffffffffffffffffffffffffffff82169050919050565b6000819050919050565b600061121c82611223565b9050919050565b600061122e826111e7565b9050919050565b82818337600083830152505050565b60005b83811015611262578082015181840152602081019050611247565b83811115611271576000848401525b50505050565b6000600282049050600182168061128f57607f821691505b602082108114156112a3576112a26112d8565b5b50919050565b7f4e487b7100000000000000000000000000000000000000000000000000000000600052601260045260246000fd5b7f4e487b7100000000000000000000000000000000000000000000000000000000600052602260045260246000fd5b7f4e487b7100000000000000000000000000000000000000000000000000000000600052604160045260246000fd5b6000601f19601f8301169050919050565b611350816111b9565b811461135b57600080fd5b50565b611367816111cb565b811461137257600080fd5b50565b61137e816111dd565b811461138957600080fd5b50565b61139581611207565b81146113a057600080fd5b5056fea264697066735822122089e1c9f2eb4bc65d53971ba2fc92705419ed692254dfd0f7f4313d7114326a9964736f6c63430008000033",
  "immutableReferences": {},
  "source": "pragma solidity ^0.8.0;\nimport \"./Users.sol\";\nimport \"./Round.sol\";\n// import \"https://github.com/OpenZeppelin/openzeppelin-contracts/blob/v3.3.0/contracts/token/ERC721/ERC721.sol\";\n\ncontract Tournament {\n    \n    \n    uint256 public num_prelims;\n    \n    address payable tabDirector;\n    Users.Team[] teamList;\n    Users.Judge[] judgeList;\n    \n    address public first_verifier;\n    bool private first_person_verified = false;\n    \n    \n    address public second_verifier;\n    bool private second_person_verified = false;\n    \n    \n    string tournamentName;\n    uint public registration_fee;\n    bool isOpen;\n    bool hasConcluded = false;\n    \n    Round[] public rounds;\n    \n    constructor(address payable _tabDirector, uint256 _num_prelims, uint _registration_fee, \n    string memory _tournament_name, address _first_verifier, address _second_verifier) {\n        num_prelims = _num_prelims;\n        registration_fee = _registration_fee;\n        tournamentName = _tournament_name;\n        tabDirector = _tabDirector;\n        first_verifier = _first_verifier;\n        second_verifier = _second_verifier;\n        \n        // trophies = new ERC721(append(_tournament_name), _trophy_abbrev);\n    }\n    \n  function registerTeam(string memory teamCode, Users.Debater memory _debater1, Users.Debater memory _debater2) public payable {\n        require(msg.value >= registration_fee, \"Your registration_fee was too low.\");\n\n        teamList.push(Users.Team(_debater1, _debater2, teamCode, 0.0, 0.0));\n        \n  }\n   \n  function registerJudge(address _judgeAddr, string memory _name, uint _roundCommitment) public returns(Users.Judge memory) {\n      Users.Judge memory _judge = Users.Judge(payable(_judgeAddr), _name, _roundCommitment);\n      judgeList.push(_judge);\n      return _judge;\n  }\n   \n   \n  function startRound(int256 roundNum) onlyTabDirector public {\n       //TODO\n  }\n   \n   \n  function startTournament() public onlyTabDirector {\n      //Send Enough money to tab director to cover gas costs of running tournament\n      tabDirector.transfer(address(this).balance / 3);\n  }\n   \n   \n  function getRegistrationFee() public view returns (uint){\n      return registration_fee;\n  }\n   \n  /*\n  In Order to have the rest of the funds given to you after the tournament\n  You must have 2 people whom you designate agree that the tournament is in fact over\n  */\n  function endTournament() private onlyTabDirector {\n        require(first_person_verified && second_person_verified, \"Not Verified\");\n        tabDirector.transfer(address(this).balance / 3);\n        hasConcluded = true;\n  }\n   \n  function verify() public onlyVerifiers {\n      if (msg.sender == first_verifier) first_person_verified = true;\n      else if (msg.sender == second_verifier) second_person_verified = true;\n  }\n   \n   \n  modifier onlyVerifiers {\n      require(\n          msg.sender == first_verifier || \n          msg.sender == second_verifier, \n          \"Not Authorized to implement this function\");\n      _;\n  }\n   \n   \n   \n    \n    modifier onlyTabDirector {\n        require(\n            msg.sender == tabDirector,\n            \"Only the Tab Director can call this function.\"\n            );\n        _;\n    }\n}",
  "sourcePath": "/Users/joshweintraub/Debat-eth/contracts/Tournament.sol",
  "compiler": {
    "name": "solc",
    "version": "0.8.0+commit.c7dfd78e.Linux.g++"
  },
  "schemaVersion": "3.3.3",
  "updatedAt": "2021-02-10T05:37:27.701Z",
  "devdoc": {
    "kind": "dev",
    "methods": {},
    "version": 1
  },
  "userdoc": {
    "kind": "user",
    "methods": {},
    "version": 1
  }
}