{
  "contractName": "TournamentController",
  "abi": [
    {
      "inputs": [],
      "stateMutability": "nonpayable",
      "type": "constructor"
    },
    {
      "inputs": [
        {
          "internalType": "uint256",
          "name": "",
          "type": "uint256"
        }
      ],
      "name": "_tournaments",
      "outputs": [
        {
          "internalType": "contract Tournament",
          "name": "",
          "type": "address"
        }
      ],
      "stateMutability": "view",
      "type": "function"
    },
    {
      "inputs": [],
      "name": "numOpenTournaments",
      "outputs": [
        {
          "internalType": "uint256",
          "name": "",
          "type": "uint256"
        }
      ],
      "stateMutability": "view",
      "type": "function"
    },
    {
      "inputs": [
        {
          "internalType": "uint256",
          "name": "_num_prelims",
          "type": "uint256"
        },
        {
          "internalType": "uint256",
          "name": "_registration_fee",
          "type": "uint256"
        },
        {
          "internalType": "string",
          "name": "_tournament_name",
          "type": "string"
        },
        {
          "internalType": "address",
          "name": "_first_verifier",
          "type": "address"
        },
        {
          "internalType": "address",
          "name": "_second_verifier",
          "type": "address"
        }
      ],
      "name": "startNewTournament",
      "outputs": [
        {
          "internalType": "address",
          "name": "",
          "type": "address"
        }
      ],
      "stateMutability": "payable",
      "type": "function"
    }
  ],
  "bytecode": "0x608060405234801561001057600080fd5b50600a67ffffffffffffffff8111801561002957600080fd5b506040519080825280602002602001820160405280156100585781602001602082028036833780820191505090505b506001908051906020019061006e92919061007b565b5060008081905550610122565b8280548282559060005260206000209081019282156100f4579160200282015b828111156100f35782518260006101000a81548173ffffffffffffffffffffffffffffffffffffffff021916908373ffffffffffffffffffffffffffffffffffffffff1602179055509160200191906001019061009b565b5b5090506101019190610105565b5090565b5b8082111561011e576000816000905550600101610106565b5090565b61481d806101316000396000f3fe60806040526004361062000055576000357c01000000000000000000000000000000000000000000000000000000009004806335f68e86146200005a5780638697b348146200009e578063c1f0872d14620000ce575b600080fd5b3480156200006757600080fd5b50620000866004803603810190620000809190620002c1565b62000104565b6040516200009591906200049e565b60405180910390f35b348015620000ab57600080fd5b50620000b662000144565b604051620000c59190620004bb565b60405180910390f35b620000ec6004803603810190620000e69190620002ed565b6200014a565b604051620000fb91906200040d565b60405180910390f35b600181815481106200011557600080fd5b906000526020600020016000915054906101000a900473ffffffffffffffffffffffffffffffffffffffff1681565b60005481565b600080338787878787604051620001619062000213565b62000172969594939291906200042a565b604051809103906000f0801580156200018f573d6000803e3d6000fd5b5090506001819080600181540180825580915050600190039060005260206000200160009091909190916101000a81548173ffffffffffffffffffffffffffffffffffffffff021916908373ffffffffffffffffffffffffffffffffffffffff16021790555060008081548092919060010191905055508091505095945050505050565b614186806200066283390190565b60006200023862000232846200050c565b620004d8565b9050828152602081018484840111156200025157600080fd5b6200025e848285620005d5565b509392505050565b60008135905062000277816200062d565b92915050565b600082601f8301126200028f57600080fd5b8135620002a184826020860162000221565b91505092915050565b600081359050620002bb8162000647565b92915050565b600060208284031215620002d457600080fd5b6000620002e484828501620002aa565b91505092915050565b600080600080600060a086880312156200030657600080fd5b60006200031688828901620002aa565b95505060206200032988828901620002aa565b945050604086013567ffffffffffffffff8111156200034757600080fd5b62000355888289016200027d565b9350506060620003688882890162000266565b92505060806200037b8882890162000266565b9150509295509295909350565b62000393816200056f565b82525050565b620003a4816200055b565b82525050565b620003b581620005ad565b82525050565b6000620003c8826200053f565b620003d481856200054a565b9350620003e6818560208601620005e4565b620003f1816200061c565b840191505092915050565b6200040781620005a3565b82525050565b600060208201905062000424600083018462000399565b92915050565b600060c08201905062000441600083018962000388565b620004506020830188620003fc565b6200045f6040830187620003fc565b8181036060830152620004738186620003bb565b905062000484608083018562000399565b6200049360a083018462000399565b979650505050505050565b6000602082019050620004b56000830184620003aa565b92915050565b6000602082019050620004d26000830184620003fc565b92915050565b6000604051905081810181811067ffffffffffffffff821117156200050257620005016200061a565b5b8060405250919050565b600067ffffffffffffffff8211156200052a57620005296200061a565b5b601f19601f8301169050602081019050919050565b600081519050919050565b600082825260208201905092915050565b6000620005688262000583565b9050919050565b60006200057c8262000583565b9050919050565b600073ffffffffffffffffffffffffffffffffffffffff82169050919050565b6000819050919050565b6000620005ba82620005c1565b9050919050565b6000620005ce8262000583565b9050919050565b82818337600083830152505050565b60005b8381101562000604578082015181840152602081019050620005e7565b8381111562000614576000848401525b50505050565bfe5b6000601f19601f8301169050919050565b62000638816200055b565b81146200064457600080fd5b50565b6200065281620005a3565b81146200065e57600080fd5b5056fe60806040526000600e60146101000a81548160ff0219169083151502179055506000600f60146101000a81548160ff0219169083151502179055506000601260016101000a81548160ff0219169083151502179055503480156200006257600080fd5b5060405162004186380380620041868339818101604052810190620000889190620005a4565b6040518060400160405280600781526020017f54455354494e47000000000000000000000000000000000000000000000000008152506040518060400160405280600481526020017f5445535400000000000000000000000000000000000000000000000000000000815250620001316301ffc9a77c01000000000000000000000000000000000000000000000000000000000262000312640100000000026401000000009004565b81600690805190602001906200014992919062000437565b5080600790805190602001906200016292919062000437565b50620001a06380ac58cd7c01000000000000000000000000000000000000000000000000000000000262000312640100000000026401000000009004565b620001dd635b5e139f7c01000000000000000000000000000000000000000000000000000000000262000312640100000000026401000000009004565b6200021a63780e9d637c01000000000000000000000000000000000000000000000000000000000262000312640100000000026401000000009004565b505084600a819055508360118190555082601090805190602001906200024292919062000437565b5085600b60006101000a81548173ffffffffffffffffffffffffffffffffffffffff021916908373ffffffffffffffffffffffffffffffffffffffff16021790555081600e60006101000a81548173ffffffffffffffffffffffffffffffffffffffff021916908373ffffffffffffffffffffffffffffffffffffffff16021790555080600f60006101000a81548173ffffffffffffffffffffffffffffffffffffffff021916908373ffffffffffffffffffffffffffffffffffffffff16021790555050505050505062000792565b63ffffffff7c010000000000000000000000000000000000000000000000000000000002817bffffffffffffffffffffffffffffffffffffffffffffffffffffffff19161415620003cb576040517f08c379a000000000000000000000000000000000000000000000000000000000815260040180806020018281038252601c8152602001807f4552433136353a20696e76616c696420696e746572666163652069640000000081525060200191505060405180910390fd5b6001600080837bffffffffffffffffffffffffffffffffffffffffffffffffffffffff19167bffffffffffffffffffffffffffffffffffffffffffffffffffffffff1916815260200190815260200160002060006101000a81548160ff02191690831515021790555050565b828054600181600116156101000203166002900490600052602060002090601f0160209004810192826200046f5760008555620004bb565b82601f106200048a57805160ff1916838001178555620004bb565b82800160010185558215620004bb579182015b82811115620004ba5782518255916020019190600101906200049d565b5b509050620004ca9190620004ce565b5090565b5b80821115620004e9576000816000905550600101620004cf565b5090565b600062000504620004fe8462000687565b62000653565b9050828152602081018484840111156200051d57600080fd5b6200052a8482856200070c565b509392505050565b600081519050620005438162000744565b92915050565b6000815190506200055a816200075e565b92915050565b600082601f8301126200057257600080fd5b815162000584848260208601620004ed565b91505092915050565b6000815190506200059e8162000778565b92915050565b60008060008060008060c08789031215620005be57600080fd5b6000620005ce89828a0162000549565b9650506020620005e189828a016200058d565b9550506040620005f489828a016200058d565b945050606087015167ffffffffffffffff8111156200061257600080fd5b6200062089828a0162000560565b93505060806200063389828a0162000532565b92505060a06200064689828a0162000532565b9150509295509295509295565b6000604051905081810181811067ffffffffffffffff821117156200067d576200067c62000742565b5b8060405250919050565b600067ffffffffffffffff821115620006a557620006a462000742565b5b601f19601f8301169050602081019050919050565b6000620006c782620006e2565b9050919050565b6000620006db82620006e2565b9050919050565b600073ffffffffffffffffffffffffffffffffffffffff82169050919050565b6000819050919050565b60005b838110156200072c5780820151818401526020810190506200070f565b838111156200073c576000848401525b50505050565bfe5b6200074f81620006ba565b81146200075b57600080fd5b50565b6200076981620006ce565b81146200077557600080fd5b50565b620007838162000702565b81146200078f57600080fd5b50565b6139e480620007a26000396000f3fe6080604052600436106101d4576000357c0100000000000000000000000000000000000000000000000000000000900480636352211e11610109578063a22cb465116100a7578063c87b56dd11610081578063c87b56dd14610642578063e985e9c51461067f578063fc735e99146106bc578063fed3b22f146106d3576101d4565b8063a22cb465146105d9578063b88d4fde14610602578063bf559d111461062b576101d4565b806379bb1f9c116100e357806379bb1f9c146105095780638c65c81f1461053457806395d89b4114610571578063a0cc93e81461059c576101d4565b80636352211e146104645780636c0360eb146104a157806370a08231146104cc576101d4565b80631f8917b61161017657806342842e0e1161015057806342842e0e146103a85780634f6ccce7146103d15780635040a61f1461040e5780635792e26214610439576101d4565b80631f8917b61461032657806323b872dd146103425780632f745c591461036b576101d4565b80630946e807116101b25780630946e8071461027e578063095ea7b3146102a957806314c73464146102d257806318160ddd146102fb576101d4565b806301ffc9a7146101d957806306fdde0314610216578063081812fc14610241575b600080fd5b3480156101e557600080fd5b5061020060048036038101906101fb9190613074565b6106fe565b60405161020d91906133ef565b60405180910390f35b34801561022257600080fd5b5061022b610765565b6040516102389190613425565b60405180910390f35b34801561024d57600080fd5b506102686004803603810190610263919061315d565b610807565b60405161027591906133d4565b60405180910390f35b34801561028a57600080fd5b506102936108a2565b6040516102a091906134c9565b60405180910390f35b3480156102b557600080fd5b506102d060048036038101906102cb9190613038565b6108ac565b005b3480156102de57600080fd5b506102f960048036038101906102f4919061309d565b6109f0565b005b34801561030757600080fd5b50610310610a83565b60405161031d91906134c9565b60405180910390f35b610340600480360381019061033b91906130c6565b610a94565b005b34801561034e57600080fd5b5061036960048036038101906103649190612ecb565b610c91565b005b34801561037757600080fd5b50610392600480360381019061038d9190613038565b610d07565b60405161039f91906134c9565b60405180910390f35b3480156103b457600080fd5b506103cf60048036038101906103ca9190612ecb565b610d62565b005b3480156103dd57600080fd5b506103f860048036038101906103f3919061315d565b610d82565b60405161040591906134c9565b60405180910390f35b34801561041a57600080fd5b50610423610da5565b60405161043091906133d4565b60405180910390f35b34801561044557600080fd5b5061044e610dcb565b60405161045b91906134c9565b60405180910390f35b34801561047057600080fd5b5061048b6004803603810190610486919061315d565b610dd1565b60405161049891906133d4565b60405180910390f35b3480156104ad57600080fd5b506104b6610e08565b6040516104c39190613425565b60405180910390f35b3480156104d857600080fd5b506104f360048036038101906104ee9190612e66565b610eaa565b60405161050091906134c9565b60405180910390f35b34801561051557600080fd5b5061051e610f7f565b60405161052b91906134c9565b60405180910390f35b34801561054057600080fd5b5061055b6004803603810190610556919061315d565b610f85565b604051610568919061340a565b60405180910390f35b34801561057d57600080fd5b50610586610fc4565b6040516105939190613425565b60405180910390f35b3480156105a857600080fd5b506105c360048036038101906105be9190612fd1565b611066565b6040516105d091906134a7565b60405180910390f35b3480156105e557600080fd5b5061060060048036038101906105fb9190612f95565b61114a565b005b34801561060e57600080fd5b5061062960048036038101906106249190612f1a565b611300565b005b34801561063757600080fd5b50610640611378565b005b34801561064e57600080fd5b506106696004803603810190610664919061315d565b611494565b6040516106769190613425565b60405180910390f35b34801561068b57600080fd5b506106a660048036038101906106a19190612e8f565b611765565b6040516106b391906133ef565b60405180910390f35b3480156106c857600080fd5b506106d16117f9565b005b3480156106df57600080fd5b506106e86119cc565b6040516106f591906133d4565b60405180910390f35b6000806000837bffffffffffffffffffffffffffffffffffffffffffffffffffffffff19167bffffffffffffffffffffffffffffffffffffffffffffffffffffffff1916815260200190815260200160002060009054906101000a900460ff169050919050565b606060068054600181600116156101000203166002900480601f0160208091040260200160405190810160405280929190818152602001828054600181600116156101000203166002900480156107fd5780601f106107d2576101008083540402835291602001916107fd565b820191906000526020600020905b8154815290600101906020018083116107e057829003601f168201915b5050505050905090565b6000610812826119f2565b610867576040517f08c379a000000000000000000000000000000000000000000000000000000000815260040180806020018281038252602c8152602001806138d9602c913960400191505060405180910390fd5b6004600083815260200190815260200160002060009054906101000a900473ffffffffffffffffffffffffffffffffffffffff169050919050565b6000601154905090565b60006108b782610dd1565b90508073ffffffffffffffffffffffffffffffffffffffff168373ffffffffffffffffffffffffffffffffffffffff16141561093e576040517f08c379a000000000000000000000000000000000000000000000000000000000815260040180806020018281038252602181526020018061395d6021913960400191505060405180910390fd5b8073ffffffffffffffffffffffffffffffffffffffff1661095d611a0f565b73ffffffffffffffffffffffffffffffffffffffff16148061098c575061098b81610986611a0f565b611765565b5b6109e1576040517f08c379a000000000000000000000000000000000000000000000000000000000815260040180806020018281038252603881526020018061382c6038913960400191505060405180910390fd5b6109eb8383611a17565b505050565b600b60009054906101000a900473ffffffffffffffffffffffffffffffffffffffff1673ffffffffffffffffffffffffffffffffffffffff163373ffffffffffffffffffffffffffffffffffffffff1614610a80576040517f08c379a0000000000000000000000000000000000000000000000000000000008152600401610a7790613447565b60405180910390fd5b50565b6000610a8f6002611ad0565b905090565b601154341015610ad9576040517f08c379a0000000000000000000000000000000000000000000000000000000008152600401610ad090613487565b60405180910390fd5b600c6040518060a0016040528084815260200183815260200185815260200160008152602001600081525090806001815401808255809150506001900390600052602060002090600b02016000909190919091506000820151816000016000820151816000019080519060200190610b52929190612aaf565b5060208201518160010160006101000a81548173ffffffffffffffffffffffffffffffffffffffff021916908373ffffffffffffffffffffffffffffffffffffffff160217905550604082015181600201556060820151816003019080519060200190610bc0929190612b3d565b5050506020820151816004016000820151816000019080519060200190610be8929190612aaf565b5060208201518160010160006101000a81548173ffffffffffffffffffffffffffffffffffffffff021916908373ffffffffffffffffffffffffffffffffffffffff160217905550604082015181600201556060820151816003019080519060200190610c56929190612b3d565b5050506040820151816008019080519060200190610c75929190612aaf565b5060608201518160090155608082015181600a01555050505050565b610ca2610c9c611a0f565b82611ae5565b610cf7576040517f08c379a000000000000000000000000000000000000000000000000000000000815260040180806020018281038252603181526020018061397e6031913960400191505060405180910390fd5b610d02838383611bd9565b505050565b6000610d5a82600160008673ffffffffffffffffffffffffffffffffffffffff1673ffffffffffffffffffffffffffffffffffffffff168152602001908152602001600020611e1c90919063ffffffff16565b905092915050565b610d7d83838360405180602001604052806000815250611300565b505050565b600080610d99836002611e3790919063ffffffff16565b50905080915050919050565b600f60009054906101000a900473ffffffffffffffffffffffffffffffffffffffff1681565b60115481565b6000610e018260405180606001604052806029815260200161388e602991396002611e659092919063ffffffff16565b9050919050565b606060098054600181600116156101000203166002900480601f016020809104026020016040519081016040528092919081815260200182805460018160011615610100020316600290048015610ea05780601f10610e7557610100808354040283529160200191610ea0565b820191906000526020600020905b815481529060010190602001808311610e8357829003601f168201915b5050505050905090565b60008073ffffffffffffffffffffffffffffffffffffffff168273ffffffffffffffffffffffffffffffffffffffff161415610f31576040517f08c379a000000000000000000000000000000000000000000000000000000000815260040180806020018281038252602a815260200180613864602a913960400191505060405180910390fd5b610f78600160008473ffffffffffffffffffffffffffffffffffffffff1673ffffffffffffffffffffffffffffffffffffffff168152602001908152602001600020611e85565b9050919050565b600a5481565b60138181548110610f9557600080fd5b906000526020600020016000915054906101000a900473ffffffffffffffffffffffffffffffffffffffff1681565b606060078054600181600116156101000203166002900480601f01602080910402602001604051908101604052809291908181526020018280546001816001161561010002031660029004801561105c5780601f106110315761010080835404028352916020019161105c565b820191906000526020600020905b81548152906001019060200180831161103f57829003601f168201915b5050505050905090565b61106e612b8a565b600060405180606001604052808673ffffffffffffffffffffffffffffffffffffffff168152602001858152602001848152509050600d81908060018154018082558091505060019003906000526020600020906003020160009091909190915060008201518160000160006101000a81548173ffffffffffffffffffffffffffffffffffffffff021916908373ffffffffffffffffffffffffffffffffffffffff1602179055506020820151816001019080519060200190611132929190612aaf565b50604082015181600201555050809150509392505050565b611152611a0f565b73ffffffffffffffffffffffffffffffffffffffff168273ffffffffffffffffffffffffffffffffffffffff1614156111f3576040517f08c379a00000000000000000000000000000000000000000000000000000000081526004018080602001828103825260198152602001807f4552433732313a20617070726f766520746f2063616c6c65720000000000000081525060200191505060405180910390fd5b8060056000611200611a0f565b73ffffffffffffffffffffffffffffffffffffffff1673ffffffffffffffffffffffffffffffffffffffff16815260200190815260200160002060008473ffffffffffffffffffffffffffffffffffffffff1673ffffffffffffffffffffffffffffffffffffffff16815260200190815260200160002060006101000a81548160ff0219169083151502179055508173ffffffffffffffffffffffffffffffffffffffff166112ad611a0f565b73ffffffffffffffffffffffffffffffffffffffff167f17307eab39ab6107e8899845ad3d59bd9653f200f220920489ca2b5937696c318360405180821515815260200191505060405180910390a35050565b61131161130b611a0f565b83611ae5565b611366576040517f08c379a000000000000000000000000000000000000000000000000000000000815260040180806020018281038252603181526020018061397e6031913960400191505060405180910390fd5b61137284848484611e9a565b50505050565b600b60009054906101000a900473ffffffffffffffffffffffffffffffffffffffff1673ffffffffffffffffffffffffffffffffffffffff163373ffffffffffffffffffffffffffffffffffffffff1614611408576040517f08c379a00000000000000000000000000000000000000000000000000000000081526004016113ff90613447565b60405180910390fd5b600b60009054906101000a900473ffffffffffffffffffffffffffffffffffffffff1673ffffffffffffffffffffffffffffffffffffffff166108fc60033073ffffffffffffffffffffffffffffffffffffffff16318161146557fe5b049081150290604051600060405180830381858888f19350505050158015611491573d6000803e3d6000fd5b50565b606061149f826119f2565b6114f4576040517f08c379a000000000000000000000000000000000000000000000000000000000815260040180806020018281038252602f81526020018061392e602f913960400191505060405180910390fd5b6000600860008481526020019081526020016000208054600181600116156101000203166002900480601f01602080910402602001604051908101604052809291908181526020018280546001816001161561010002031660029004801561159d5780601f106115725761010080835404028352916020019161159d565b820191906000526020600020905b81548152906001019060200180831161158057829003601f168201915b5050505050905060006115ae610e08565b90506000815114156115c4578192505050611760565b6000825111156116955780826040516020018083805190602001908083835b6020831061160657805182526020820191506020810190506020830392506115e3565b6001836020036101000a03801982511681845116808217855250505050505090500182805190602001908083835b602083106116575780518252602082019150602081019050602083039250611634565b6001836020036101000a0380198251168184511680821785525050505050509050019250505060405160208183030381529060405292505050611760565b8061169f85611f0c565b6040516020018083805190602001908083835b602083106116d557805182526020820191506020810190506020830392506116b2565b6001836020036101000a03801982511681845116808217855250505050505090500182805190602001908083835b602083106117265780518252602082019150602081019050602083039250611703565b6001836020036101000a03801982511681845116808217855250505050505090500192505050604051602081830303815290604052925050505b919050565b6000600560008473ffffffffffffffffffffffffffffffffffffffff1673ffffffffffffffffffffffffffffffffffffffff16815260200190815260200160002060008373ffffffffffffffffffffffffffffffffffffffff1673ffffffffffffffffffffffffffffffffffffffff16815260200190815260200160002060009054906101000a900460ff16905092915050565b600e60009054906101000a900473ffffffffffffffffffffffffffffffffffffffff1673ffffffffffffffffffffffffffffffffffffffff163373ffffffffffffffffffffffffffffffffffffffff1614806118a25750600f60009054906101000a900473ffffffffffffffffffffffffffffffffffffffff1673ffffffffffffffffffffffffffffffffffffffff163373ffffffffffffffffffffffffffffffffffffffff16145b6118e1576040517f08c379a00000000000000000000000000000000000000000000000000000000081526004016118d890613467565b60405180910390fd5b600e60009054906101000a900473ffffffffffffffffffffffffffffffffffffffff1673ffffffffffffffffffffffffffffffffffffffff163373ffffffffffffffffffffffffffffffffffffffff161415611957576001600e60146101000a81548160ff0219169083151502179055506119ca565b600f60009054906101000a900473ffffffffffffffffffffffffffffffffffffffff1673ffffffffffffffffffffffffffffffffffffffff163373ffffffffffffffffffffffffffffffffffffffff1614156119c9576001600f60146101000a81548160ff0219169083151502179055505b5b565b600e60009054906101000a900473ffffffffffffffffffffffffffffffffffffffff1681565b6000611a0882600261207290919063ffffffff16565b9050919050565b600033905090565b816004600083815260200190815260200160002060006101000a81548173ffffffffffffffffffffffffffffffffffffffff021916908373ffffffffffffffffffffffffffffffffffffffff160217905550808273ffffffffffffffffffffffffffffffffffffffff16611a8a83610dd1565b73ffffffffffffffffffffffffffffffffffffffff167f8c5be1e5ebec7d5bd14f71427d1e84f3dd0314c0f7b2291e5b200ac8c7c3b92560405160405180910390a45050565b6000611ade8260000161208c565b9050919050565b6000611af0826119f2565b611b45576040517f08c379a000000000000000000000000000000000000000000000000000000000815260040180806020018281038252602c815260200180613800602c913960400191505060405180910390fd5b6000611b5083610dd1565b90508073ffffffffffffffffffffffffffffffffffffffff168473ffffffffffffffffffffffffffffffffffffffff161480611bbf57508373ffffffffffffffffffffffffffffffffffffffff16611ba784610807565b73ffffffffffffffffffffffffffffffffffffffff16145b80611bd05750611bcf8185611765565b5b91505092915050565b8273ffffffffffffffffffffffffffffffffffffffff16611bf982610dd1565b73ffffffffffffffffffffffffffffffffffffffff1614611c65576040517f08c379a00000000000000000000000000000000000000000000000000000000081526004018080602001828103825260298152602001806139056029913960400191505060405180910390fd5b600073ffffffffffffffffffffffffffffffffffffffff168273ffffffffffffffffffffffffffffffffffffffff161415611ceb576040517f08c379a00000000000000000000000000000000000000000000000000000000081526004018080602001828103825260248152602001806137b66024913960400191505060405180910390fd5b611cf683838361209d565b611d01600082611a17565b611d5281600160008673ffffffffffffffffffffffffffffffffffffffff1673ffffffffffffffffffffffffffffffffffffffff1681526020019081526020016000206120a290919063ffffffff16565b50611da481600160008573ffffffffffffffffffffffffffffffffffffffff1673ffffffffffffffffffffffffffffffffffffffff1681526020019081526020016000206120bc90919063ffffffff16565b50611dbb818360026120d69092919063ffffffff16565b50808273ffffffffffffffffffffffffffffffffffffffff168473ffffffffffffffffffffffffffffffffffffffff167fddf252ad1be2c89b69c2b068fc378daa952ba7f163c4a11628f55a4df523b3ef60405160405180910390a4505050565b6000611e2b836000018361210b565b60019004905092915050565b600080600080611e4a866000018661218e565b91509150816001900481600190049350935050509250929050565b6000611e78846000018460010284612227565b6001900490509392505050565b6000611e938260000161231d565b9050919050565b611ea5848484611bd9565b611eb18484848461232e565b611f06576040517f08c379a00000000000000000000000000000000000000000000000000000000081526004018080602001828103825260328152602001806137846032913960400191505060405180910390fd5b50505050565b60606000821415611f54576040518060400160405280600181526020017f3000000000000000000000000000000000000000000000000000000000000000815250905061206d565b600082905060005b60008214611f7e578080600101915050600a8281611f7657fe5b049150611f5c565b60008167ffffffffffffffff81118015611f9757600080fd5b506040519080825280601f01601f191660200182016040528015611fca5781602001600182028036833780820191505090505b50905060006001830390508593505b6000841461206557600a8481611feb57fe5b066030017f0100000000000000000000000000000000000000000000000000000000000000028282806001900393508151811061202457fe5b60200101907effffffffffffffffffffffffffffffffffffffffffffffffffffffffffffff1916908160001a905350600a848161205d57fe5b049350611fd9565b819450505050505b919050565b6000612084836000018360010261257f565b905092915050565b600081600001805490509050919050565b505050565b60006120b483600001836001026125a2565b905092915050565b60006120ce836000018360010261268a565b905092915050565b600061210284600001846001028473ffffffffffffffffffffffffffffffffffffffff166001026126fa565b90509392505050565b60008183600001805490501161216c576040517f08c379a00000000000000000000000000000000000000000000000000000000081526004018080602001828103825260228152602001806137626022913960400191505060405180910390fd5b82600001828154811061217b57fe5b9060005260206000200154905092915050565b600080828460000180549050116121f0576040517f08c379a00000000000000000000000000000000000000000000000000000000081526004018080602001828103825260228152602001806138b76022913960400191505060405180910390fd5b600084600001848154811061220157fe5b906000526020600020906002020190508060000154816001015492509250509250929050565b600080846001016000858152602001908152602001600020549050600081141583906122ee576040517f08c379a00000000000000000000000000000000000000000000000000000000081526004018080602001828103825283818151815260200191508051906020019080838360005b838110156122b3578082015181840152602081019050612298565b50505050905090810190601f1680156122e05780820380516001836020036101000a031916815260200191505b509250505060405180910390fd5b5084600001600182038154811061230157fe5b9060005260206000209060020201600101549150509392505050565b600081600001805490509050919050565b600061234f8473ffffffffffffffffffffffffffffffffffffffff166127d6565b61235c5760019050612577565b60006124e263150b7a027c01000000000000000000000000000000000000000000000000000000000261238d611a0f565b888787604051602401808573ffffffffffffffffffffffffffffffffffffffff1681526020018473ffffffffffffffffffffffffffffffffffffffff16815260200183815260200180602001828103825283818151815260200191508051906020019080838360005b838110156124115780820151818401526020810190506123f6565b50505050905090810190601f16801561243e5780820380516001836020036101000a031916815260200191505b5095505050505050604051602081830303815290604052907bffffffffffffffffffffffffffffffffffffffffffffffffffffffff19166020820180517bffffffffffffffffffffffffffffffffffffffffffffffffffffffff8381831617835250505050604051806060016040528060328152602001613784603291398773ffffffffffffffffffffffffffffffffffffffff166127e99092919063ffffffff16565b905060008180602001905160208110156124fb57600080fd5b8101908080519060200190929190505050905063150b7a027c0100000000000000000000000000000000000000000000000000000000027bffffffffffffffffffffffffffffffffffffffffffffffffffffffff1916817bffffffffffffffffffffffffffffffffffffffffffffffffffffffff191614925050505b949350505050565b600080836001016000848152602001908152602001600020541415905092915050565b6000808360010160008481526020019081526020016000205490506000811461267e57600060018203905060006001866000018054905003905060008660000182815481106125ed57fe5b906000526020600020015490508087600001848154811061260a57fe5b906000526020600020018190555060018301876001016000838152602001908152602001600020819055508660000180548061264257fe5b60019003818190600052602060002001600090559055866001016000878152602001908152602001600020600090556001945050505050612684565b60009150505b92915050565b60006126968383612801565b6126ef5782600001829080600181540180825580915050600190039060005260206000200160009091909190915055826000018054905083600101600084815260200190815260200160002081905550600190506126f4565b600090505b92915050565b60008084600101600085815260200190815260200160002054905060008114156127a1578460000160405180604001604052808681526020018581525090806001815401808255809150506001900390600052602060002090600202016000909190919091506000820151816000015560208201518160010155505084600001805490508560010160008681526020019081526020016000208190555060019150506127cf565b828560000160018303815481106127b457fe5b90600052602060002090600202016001018190555060009150505b9392505050565b600080823b905060008111915050919050565b60606127f88484600085612824565b90509392505050565b600080836001016000848152602001908152602001600020541415905092915050565b6060823073ffffffffffffffffffffffffffffffffffffffff16311015612896576040517f08c379a00000000000000000000000000000000000000000000000000000000081526004018080602001828103825260268152602001806137da6026913960400191505060405180910390fd5b61289f856127d6565b612911576040517f08c379a000000000000000000000000000000000000000000000000000000000815260040180806020018281038252601d8152602001807f416464726573733a2063616c6c20746f206e6f6e2d636f6e747261637400000081525060200191505060405180910390fd5b6000808673ffffffffffffffffffffffffffffffffffffffff1685876040518082805190602001908083835b60208310612960578051825260208201915060208101905060208303925061293d565b6001836020036101000a03801982511681845116808217855250505050505090500191505060006040518083038185875af1925050503d80600081146129c2576040519150601f19603f3d011682016040523d82523d6000602084013e6129c7565b606091505b50915091506129d78282866129e3565b92505050949350505050565b606083156129f357829050612aa8565b600083511115612a065782518084602001fd5b816040517f08c379a00000000000000000000000000000000000000000000000000000000081526004018080602001828103825283818151815260200191508051906020019080838360005b83811015612a6d578082015181840152602081019050612a52565b50505050905090810190601f168015612a9a5780820380516001836020036101000a031916815260200191505b509250505060405180910390fd5b9392505050565b828054600181600116156101000203166002900490600052602060002090601f016020900481019282612ae55760008555612b2c565b82601f10612afe57805160ff1916838001178555612b2c565b82800160010185558215612b2c579182015b82811115612b2b578251825591602001919060010190612b10565b5b509050612b399190612bc1565b5090565b828054828255906000526020600020908101928215612b79579160200282015b82811115612b78578251825591602001919060010190612b5d565b5b509050612b869190612bc1565b5090565b6040518060600160405280600073ffffffffffffffffffffffffffffffffffffffff16815260200160608152602001600081525090565b5b80821115612bda576000816000905550600101612bc2565b5090565b6000612bf1612bec84613515565b6134e4565b90508083825260208201905082856020860282011115612c1057600080fd5b60005b85811015612c405781612c268882612e51565b845260208401935060208301925050600181019050612c13565b5050509392505050565b6000612c5d612c5884613541565b6134e4565b905082815260208101848484011115612c7557600080fd5b612c80848285613682565b509392505050565b6000612c9b612c9684613571565b6134e4565b905082815260208101848484011115612cb357600080fd5b612cbe848285613682565b509392505050565b600081359050612cd5816136d7565b92915050565b600081359050612cea816136ee565b92915050565b600082601f830112612d0157600080fd5b8135612d11848260208601612bde565b91505092915050565b600081359050612d2981613705565b92915050565b600081359050612d3e8161371c565b92915050565b600082601f830112612d5557600080fd5b8135612d65848260208601612c4a565b91505092915050565b600081359050612d7d81613733565b92915050565b600082601f830112612d9457600080fd5b8135612da4848260208601612c88565b91505092915050565b600060808284031215612dbf57600080fd5b612dc960806134e4565b9050600082013567ffffffffffffffff811115612de557600080fd5b612df184828501612d83565b6000830152506020612e0584828501612cdb565b6020830152506040612e1984828501612e51565b604083015250606082013567ffffffffffffffff811115612e3957600080fd5b612e4584828501612cf0565b60608301525092915050565b600081359050612e608161374a565b92915050565b600060208284031215612e7857600080fd5b6000612e8684828501612cc6565b91505092915050565b60008060408385031215612ea257600080fd5b6000612eb085828601612cc6565b9250506020612ec185828601612cc6565b9150509250929050565b600080600060608486031215612ee057600080fd5b6000612eee86828701612cc6565b9350506020612eff86828701612cc6565b9250506040612f1086828701612e51565b9150509250925092565b60008060008060808587031215612f3057600080fd5b6000612f3e87828801612cc6565b9450506020612f4f87828801612cc6565b9350506040612f6087828801612e51565b925050606085013567ffffffffffffffff811115612f7d57600080fd5b612f8987828801612d44565b91505092959194509250565b60008060408385031215612fa857600080fd5b6000612fb685828601612cc6565b9250506020612fc785828601612d1a565b9150509250929050565b600080600060608486031215612fe657600080fd5b6000612ff486828701612cc6565b935050602084013567ffffffffffffffff81111561301157600080fd5b61301d86828701612d83565b925050604061302e86828701612e51565b9150509250925092565b6000806040838503121561304b57600080fd5b600061305985828601612cc6565b925050602061306a85828601612e51565b9150509250929050565b60006020828403121561308657600080fd5b600061309484828501612d2f565b91505092915050565b6000602082840312156130af57600080fd5b60006130bd84828501612d6e565b91505092915050565b6000806000606084860312156130db57600080fd5b600084013567ffffffffffffffff8111156130f557600080fd5b61310186828701612d83565b935050602084013567ffffffffffffffff81111561311e57600080fd5b61312a86828701612dad565b925050604084013567ffffffffffffffff81111561314757600080fd5b61315386828701612dad565b9150509250925092565b60006020828403121561316f57600080fd5b600061317d84828501612e51565b91505092915050565b61318f816135e0565b82525050565b61319e816135ce565b82525050565b6131ad816135f2565b82525050565b6131bc8161365e565b82525050565b60006131cd826135a1565b6131d781856135ac565b93506131e7818560208601613691565b6131f0816136c6565b840191505092915050565b6000613206826135a1565b61321081856135bd565b9350613220818560208601613691565b613229816136c6565b840191505092915050565b6000613241602d836135bd565b91507f4f6e6c792074686520546162204469726563746f722063616e2063616c6c207460008301527f6869732066756e6374696f6e2e000000000000000000000000000000000000006020830152604082019050919050565b60006132a76029836135bd565b91507f4e6f7420417574686f72697a656420746f20696d706c656d656e74207468697360008301527f2066756e6374696f6e00000000000000000000000000000000000000000000006020830152604082019050919050565b600061330d6022836135bd565b91507f596f757220726567697374726174696f6e5f6665652077617320746f6f206c6f60008301527f772e0000000000000000000000000000000000000000000000000000000000006020830152604082019050919050565b600060608301600083015161337e6000860182613186565b506020830151848203602086015261339682826131c2565b91505060408301516133ab60408601826133b6565b508091505092915050565b6133bf81613654565b82525050565b6133ce81613654565b82525050565b60006020820190506133e96000830184613195565b92915050565b600060208201905061340460008301846131a4565b92915050565b600060208201905061341f60008301846131b3565b92915050565b6000602082019050818103600083015261343f81846131fb565b905092915050565b6000602082019050818103600083015261346081613234565b9050919050565b600060208201905081810360008301526134808161329a565b9050919050565b600060208201905081810360008301526134a081613300565b9050919050565b600060208201905081810360008301526134c18184613366565b905092915050565b60006020820190506134de60008301846133c5565b92915050565b6000604051905081810181811067ffffffffffffffff8211171561350b5761350a6136c4565b5b8060405250919050565b600067ffffffffffffffff8211156135305761352f6136c4565b5b602082029050602081019050919050565b600067ffffffffffffffff82111561355c5761355b6136c4565b5b601f19601f8301169050602081019050919050565b600067ffffffffffffffff82111561358c5761358b6136c4565b5b601f19601f8301169050602081019050919050565b600081519050919050565b600082825260208201905092915050565b600082825260208201905092915050565b60006135d982613634565b9050919050565b60006135eb82613634565b9050919050565b60008115159050919050565b60007fffffffff0000000000000000000000000000000000000000000000000000000082169050919050565b6000819050919050565b600073ffffffffffffffffffffffffffffffffffffffff82169050919050565b6000819050919050565b600061366982613670565b9050919050565b600061367b82613634565b9050919050565b82818337600083830152505050565b60005b838110156136af578082015181840152602081019050613694565b838111156136be576000848401525b50505050565bfe5b6000601f19601f8301169050919050565b6136e0816135ce565b81146136eb57600080fd5b50565b6136f7816135e0565b811461370257600080fd5b50565b61370e816135f2565b811461371957600080fd5b50565b613725816135fe565b811461373057600080fd5b50565b61373c8161362a565b811461374757600080fd5b50565b61375381613654565b811461375e57600080fd5b5056fe456e756d657261626c655365743a20696e646578206f7574206f6620626f756e64734552433732313a207472616e7366657220746f206e6f6e20455243373231526563656976657220696d706c656d656e7465724552433732313a207472616e7366657220746f20746865207a65726f2061646472657373416464726573733a20696e73756666696369656e742062616c616e636520666f722063616c6c4552433732313a206f70657261746f7220717565727920666f72206e6f6e6578697374656e7420746f6b656e4552433732313a20617070726f76652063616c6c6572206973206e6f74206f776e6572206e6f7220617070726f76656420666f7220616c6c4552433732313a2062616c616e636520717565727920666f7220746865207a65726f20616464726573734552433732313a206f776e657220717565727920666f72206e6f6e6578697374656e7420746f6b656e456e756d657261626c654d61703a20696e646578206f7574206f6620626f756e64734552433732313a20617070726f76656420717565727920666f72206e6f6e6578697374656e7420746f6b656e4552433732313a207472616e73666572206f6620746f6b656e2074686174206973206e6f74206f776e4552433732314d657461646174613a2055524920717565727920666f72206e6f6e6578697374656e7420746f6b656e4552433732313a20617070726f76616c20746f2063757272656e74206f776e65724552433732313a207472616e736665722063616c6c6572206973206e6f74206f776e6572206e6f7220617070726f766564a264697066735822122021190f0a0646d775f9e3f193eabefc9770930017a264d3a23d2fbf55e4b9fb1764736f6c63430007060033a264697066735822122086436450fa4c2e1956fd0dacd87e440bbcd58012398193d62666d6f11982248864736f6c63430007060033",
  "immutableReferences": {},
  "source": "pragma solidity ^0.7.6;\npragma abicoder v2;\n\nimport \"./Tournament.sol\";\n\n\ncontract TournamentController {\n    \n    uint public numOpenTournaments;\n    Tournament[] public _tournaments;\n    \n    /*\n    TODO\n    */\n    constructor() {\n        _tournaments = new Tournament[](10);\n        numOpenTournaments = 0;\n    }\n    \n    \n    function startNewTournament(uint256 _num_prelims, uint _registration_fee, string memory _tournament_name, address _first_verifier, address _second_verifier) public payable returns (address) {\n        \n        Tournament newTournament = new Tournament(\n            payable(msg.sender), _num_prelims, _registration_fee, _tournament_name, _first_verifier, _second_verifier\n        );\n        \n        _tournaments.push(newTournament);\n        numOpenTournaments++;\n        \n        return address(newTournament);\n        \n    }\n  \n}\n",
  "sourcePath": "/Users/joshweintraub/Debat-eth/contracts/TournamentController.sol",
  "compiler": {
    "name": "solc",
    "version": "0.7.6+commit.7338295f.Linux.g++"
  },
  "schemaVersion": "3.3.3",
  "updatedAt": "2021-02-10T05:50:20.186Z",
  "devdoc": {
    "kind": "dev",
    "methods": {},
    "version": 1
  },
  "userdoc": {
    "kind": "user",
    "methods": {},
    "version": 1
  }
}