{
  "contractName": "Users",
  "abi": [
    {
      "inputs": [
        {
          "components": [
            {
              "components": [
                {
                  "internalType": "string",
                  "name": "name",
                  "type": "string"
                },
                {
                  "internalType": "address payable",
                  "name": "addr",
                  "type": "address"
                },
                {
                  "internalType": "uint256",
                  "name": "totalSpeaks",
                  "type": "uint256"
                },
                {
                  "internalType": "uint256[]",
                  "name": "speaks",
                  "type": "uint256[]"
                }
              ],
              "internalType": "struct Users.Debater",
              "name": "debater1",
              "type": "tuple"
            },
            {
              "components": [
                {
                  "internalType": "string",
                  "name": "name",
                  "type": "string"
                },
                {
                  "internalType": "address payable",
                  "name": "addr",
                  "type": "address"
                },
                {
                  "internalType": "uint256",
                  "name": "totalSpeaks",
                  "type": "uint256"
                },
                {
                  "internalType": "uint256[]",
                  "name": "speaks",
                  "type": "uint256[]"
                }
              ],
              "internalType": "struct Users.Debater",
              "name": "debater2",
              "type": "tuple"
            },
            {
              "internalType": "string",
              "name": "teamCode",
              "type": "string"
            },
            {
              "internalType": "uint256",
              "name": "totalSpeaks",
              "type": "uint256"
            },
            {
              "internalType": "uint256",
              "name": "wins",
              "type": "uint256"
            }
          ],
          "internalType": "struct Users.Team",
          "name": "_team1",
          "type": "tuple"
        },
        {
          "components": [
            {
              "components": [
                {
                  "internalType": "string",
                  "name": "name",
                  "type": "string"
                },
                {
                  "internalType": "address payable",
                  "name": "addr",
                  "type": "address"
                },
                {
                  "internalType": "uint256",
                  "name": "totalSpeaks",
                  "type": "uint256"
                },
                {
                  "internalType": "uint256[]",
                  "name": "speaks",
                  "type": "uint256[]"
                }
              ],
              "internalType": "struct Users.Debater",
              "name": "debater1",
              "type": "tuple"
            },
            {
              "components": [
                {
                  "internalType": "string",
                  "name": "name",
                  "type": "string"
                },
                {
                  "internalType": "address payable",
                  "name": "addr",
                  "type": "address"
                },
                {
                  "internalType": "uint256",
                  "name": "totalSpeaks",
                  "type": "uint256"
                },
                {
                  "internalType": "uint256[]",
                  "name": "speaks",
                  "type": "uint256[]"
                }
              ],
              "internalType": "struct Users.Debater",
              "name": "debater2",
              "type": "tuple"
            },
            {
              "internalType": "string",
              "name": "teamCode",
              "type": "string"
            },
            {
              "internalType": "uint256",
              "name": "totalSpeaks",
              "type": "uint256"
            },
            {
              "internalType": "uint256",
              "name": "wins",
              "type": "uint256"
            }
          ],
          "internalType": "struct Users.Team",
          "name": "_team2",
          "type": "tuple"
        }
      ],
      "name": "compareTeams",
      "outputs": [
        {
          "internalType": "bool",
          "name": "",
          "type": "bool"
        }
      ],
      "stateMutability": "pure",
      "type": "function"
    },
    {
      "inputs": [
        {
          "internalType": "string",
          "name": "a",
          "type": "string"
        },
        {
          "internalType": "string",
          "name": "b",
          "type": "string"
        },
        {
          "internalType": "string",
          "name": "c",
          "type": "string"
        }
      ],
      "name": "append",
      "outputs": [
        {
          "internalType": "string",
          "name": "",
          "type": "string"
        }
      ],
      "stateMutability": "pure",
      "type": "function"
    },
    {
      "inputs": [
        {
          "internalType": "string",
          "name": "a",
          "type": "string"
        },
        {
          "internalType": "string",
          "name": "b",
          "type": "string"
        }
      ],
      "name": "append",
      "outputs": [
        {
          "internalType": "string",
          "name": "",
          "type": "string"
        }
      ],
      "stateMutability": "pure",
      "type": "function"
    }
  ],
  "bytecode": "0x6108ac610026600b82828239805160001a60731461001957fe5b30600052607381538281f3fe7300000000000000000000000000000000000000003014608060405260043610610068576000357c01000000000000000000000000000000000000000000000000000000009004806347395ced1461006d578063591c515f1461009d578063bb1d442f146100cd575b600080fd5b610087600480360381019061008291906104d2565b6100fd565b60405161009491906106d5565b60405180910390f35b6100b760048036038101906100b29190610466565b61012c565b6040516100c491906106d5565b60405180910390f35b6100e760048036038101906100e29190610569565b610158565b6040516100f491906106ba565b60405180910390f35b606083838360405160200161011493929190610689565b60405160208183030381529060405290509392505050565b60608282604051602001610141929190610665565b604051602081830303815290604052905092915050565b6000816040015160405160200161016f919061064e565b60405160208183030381529060405280519060200120836040015160405160200161019a919061064e565b6040516020818303038152906040528051906020012014156101bf57600190506101c4565b600090505b92915050565b60006101dd6101d884610728565b6106f7565b905080838252602082019050828560208602820111156101fc57600080fd5b60005b8581101561022c57816102128882610451565b8452602084019350602083019250506001810190506101ff565b5050509392505050565b600061024961024484610754565b6106f7565b90508281526020810184848401111561026157600080fd5b61026c8482856107f3565b509392505050565b60008135905061028381610848565b92915050565b600082601f83011261029a57600080fd5b81356102aa8482602086016101ca565b91505092915050565b600082601f8301126102c457600080fd5b81356102d4848260208601610236565b91505092915050565b6000608082840312156102ef57600080fd5b6102f960806106f7565b9050600082013567ffffffffffffffff81111561031557600080fd5b610321848285016102b3565b600083015250602061033584828501610274565b602083015250604061034984828501610451565b604083015250606082013567ffffffffffffffff81111561036957600080fd5b61037584828501610289565b60608301525092915050565b600060a0828403121561039357600080fd5b61039d60a06106f7565b9050600082013567ffffffffffffffff8111156103b957600080fd5b6103c5848285016102dd565b600083015250602082013567ffffffffffffffff8111156103e557600080fd5b6103f1848285016102dd565b602083015250604082013567ffffffffffffffff81111561041157600080fd5b61041d848285016102b3565b604083015250606061043184828501610451565b606083015250608061044584828501610451565b60808301525092915050565b6000813590506104608161085f565b92915050565b6000806040838503121561047957600080fd5b600083013567ffffffffffffffff81111561049357600080fd5b61049f858286016102b3565b925050602083013567ffffffffffffffff8111156104bc57600080fd5b6104c8858286016102b3565b9150509250929050565b6000806000606084860312156104e757600080fd5b600084013567ffffffffffffffff81111561050157600080fd5b61050d868287016102b3565b935050602084013567ffffffffffffffff81111561052a57600080fd5b610536868287016102b3565b925050604084013567ffffffffffffffff81111561055357600080fd5b61055f868287016102b3565b9150509250925092565b6000806040838503121561057c57600080fd5b600083013567ffffffffffffffff81111561059657600080fd5b6105a285828601610381565b925050602083013567ffffffffffffffff8111156105bf57600080fd5b6105cb85828601610381565b9150509250929050565b6105de816107bd565b82525050565b60006105ef82610784565b6105f9818561078f565b9350610609818560208601610802565b61061281610837565b840191505092915050565b600061062882610784565b61063281856107a0565b9350610642818560208601610802565b80840191505092915050565b600061065a828461061d565b915081905092915050565b6000610671828561061d565b915061067d828461061d565b91508190509392505050565b6000610695828661061d565b91506106a1828561061d565b91506106ad828461061d565b9150819050949350505050565b60006020820190506106cf60008301846105d5565b92915050565b600060208201905081810360008301526106ef81846105e4565b905092915050565b6000604051905081810181811067ffffffffffffffff8211171561071e5761071d610835565b5b8060405250919050565b600067ffffffffffffffff82111561074357610742610835565b5b602082029050602081019050919050565b600067ffffffffffffffff82111561076f5761076e610835565b5b601f19601f8301169050602081019050919050565b600081519050919050565b600082825260208201905092915050565b600081905092915050565b60006107b6826107c9565b9050919050565b60008115159050919050565b600073ffffffffffffffffffffffffffffffffffffffff82169050919050565b6000819050919050565b82818337600083830152505050565b60005b83811015610820578082015181840152602081019050610805565b8381111561082f576000848401525b50505050565bfe5b6000601f19601f8301169050919050565b610851816107ab565b811461085c57600080fd5b50565b610868816107e9565b811461087357600080fd5b5056fea2646970667358221220db5d272ee4bf89a729d11427dd0a19e33612abfc73a23706bdf119e161849f8364736f6c63430007060033",
  "immutableReferences": {},
  "source": "pragma solidity ^0.7.6;\npragma abicoder v2;\n\n\nlibrary Users {\n    \n    \n    struct Debater {\n        string name;\n        address payable addr;\n        uint totalSpeaks;\n        uint[] speaks;\n    }\n    \n    struct Team {\n        Debater debater1;\n        Debater debater2;\n        \n        string teamCode;\n        uint totalSpeaks;\n        uint wins;\n        \n    }\n    \n    \n    //TODO: Add conflicts - I had it in but it was causing weird compiler problems with reference passing so I took it out just to compile\n    struct Judge {\n        address payable judgeAddr;\n        string name;\n        // Team[] conflicts;\n        uint roundsRemaining;\n    }\n    \n    function compareTeams(Team memory _team1, Team memory _team2) public pure returns (bool) {\n        \n        //You Only need to compare one field because no two-teams with the same name would be registered Simultaneously\n        if (keccak256(abi.encodePacked(_team1.teamCode)) == keccak256(abi.encodePacked(_team2.teamCode))) return true;\n        else return false;\n        \n    }\n    \n    function append(string memory a, string memory b) public pure returns (string memory) {\n        return string(abi.encodePacked(a, b));\n    }\n    \n    function append(string memory a, string memory b, string memory c) public pure returns (string memory) {\n        return string(abi.encodePacked(a, b, c));\n    }\n    \n    \n    \n}",
  "sourcePath": "/Users/joshweintraub/Debat-eth/contracts/Users.sol",
  "compiler": {
    "name": "solc",
    "version": "0.7.6+commit.7338295f.Linux.g++"
  },
  "schemaVersion": "3.3.3",
  "updatedAt": "2021-02-10T05:50:20.194Z",
  "devdoc": {
    "kind": "dev",
    "methods": {},
    "version": 1
  },
  "userdoc": {
    "kind": "user",
    "methods": {},
    "version": 1
  }
}