{
  "contractName": "Users",
  "abi": [
    {
      "inputs": [
        {
          "components": [
            {
              "components": [
                {
                  "internalType": "string",
                  "name": "name",
                  "type": "string"
                },
                {
                  "internalType": "address payable",
                  "name": "addr",
                  "type": "address"
                },
                {
                  "internalType": "uint256",
                  "name": "totalSpeaks",
                  "type": "uint256"
                },
                {
                  "internalType": "uint256[]",
                  "name": "speaks",
                  "type": "uint256[]"
                }
              ],
              "internalType": "struct Users.Debater",
              "name": "debater1",
              "type": "tuple"
            },
            {
              "components": [
                {
                  "internalType": "string",
                  "name": "name",
                  "type": "string"
                },
                {
                  "internalType": "address payable",
                  "name": "addr",
                  "type": "address"
                },
                {
                  "internalType": "uint256",
                  "name": "totalSpeaks",
                  "type": "uint256"
                },
                {
                  "internalType": "uint256[]",
                  "name": "speaks",
                  "type": "uint256[]"
                }
              ],
              "internalType": "struct Users.Debater",
              "name": "debater2",
              "type": "tuple"
            },
            {
              "internalType": "string",
              "name": "teamCode",
              "type": "string"
            },
            {
              "internalType": "uint256",
              "name": "totalSpeaks",
              "type": "uint256"
            },
            {
              "internalType": "uint256",
              "name": "wins",
              "type": "uint256"
            }
          ],
          "internalType": "struct Users.Team",
          "name": "_team1",
          "type": "tuple"
        },
        {
          "components": [
            {
              "components": [
                {
                  "internalType": "string",
                  "name": "name",
                  "type": "string"
                },
                {
                  "internalType": "address payable",
                  "name": "addr",
                  "type": "address"
                },
                {
                  "internalType": "uint256",
                  "name": "totalSpeaks",
                  "type": "uint256"
                },
                {
                  "internalType": "uint256[]",
                  "name": "speaks",
                  "type": "uint256[]"
                }
              ],
              "internalType": "struct Users.Debater",
              "name": "debater1",
              "type": "tuple"
            },
            {
              "components": [
                {
                  "internalType": "string",
                  "name": "name",
                  "type": "string"
                },
                {
                  "internalType": "address payable",
                  "name": "addr",
                  "type": "address"
                },
                {
                  "internalType": "uint256",
                  "name": "totalSpeaks",
                  "type": "uint256"
                },
                {
                  "internalType": "uint256[]",
                  "name": "speaks",
                  "type": "uint256[]"
                }
              ],
              "internalType": "struct Users.Debater",
              "name": "debater2",
              "type": "tuple"
            },
            {
              "internalType": "string",
              "name": "teamCode",
              "type": "string"
            },
            {
              "internalType": "uint256",
              "name": "totalSpeaks",
              "type": "uint256"
            },
            {
              "internalType": "uint256",
              "name": "wins",
              "type": "uint256"
            }
          ],
          "internalType": "struct Users.Team",
          "name": "_team2",
          "type": "tuple"
        }
      ],
      "name": "compareTeams",
      "outputs": [
        {
          "internalType": "bool",
          "name": "",
          "type": "bool"
        }
      ],
      "stateMutability": "pure",
      "type": "function"
    }
  ],
  "bytecode": "0x6108f3610053600b82828239805160001a607314610046577f4e487b7100000000000000000000000000000000000000000000000000000000600052600060045260246000fd5b30600052607381538281f3fe7300000000000000000000000000000000000000003014608060405260043610610068576000357c01000000000000000000000000000000000000000000000000000000009004806347395ced1461006d578063591c515f146100aa578063bb1d442f146100e7575b600080fd5b81801561007957600080fd5b50610094600480360381019061008f91906104ec565b610117565b6040516100a191906106ef565b60405180910390f35b8180156100b657600080fd5b506100d160048036038101906100cc9190610480565b610146565b6040516100de91906106ef565b60405180910390f35b61010160048036038101906100fc9190610583565b610172565b60405161010e91906106d4565b60405180910390f35b606083838360405160200161012e939291906106a3565b60405160208183030381529060405290509392505050565b6060828260405160200161015b92919061067f565b604051602081830303815290604052905092915050565b600081604001516040516020016101899190610668565b6040516020818303038152906040528051906020012083604001516040516020016101b49190610668565b6040516020818303038152906040528051906020012014156101d957600190506101de565b600090505b92915050565b60006101f76101f284610742565b610711565b9050808382526020820190508285602086028201111561021657600080fd5b60005b85811015610246578161022c888261046b565b845260208401935060208301925050600181019050610219565b5050509392505050565b600061026361025e8461076e565b610711565b90508281526020810184848401111561027b57600080fd5b61028684828561080d565b509392505050565b60008135905061029d8161088f565b92915050565b600082601f8301126102b457600080fd5b81356102c48482602086016101e4565b91505092915050565b600082601f8301126102de57600080fd5b81356102ee848260208601610250565b91505092915050565b60006080828403121561030957600080fd5b6103136080610711565b9050600082013567ffffffffffffffff81111561032f57600080fd5b61033b848285016102cd565b600083015250602061034f8482850161028e565b60208301525060406103638482850161046b565b604083015250606082013567ffffffffffffffff81111561038357600080fd5b61038f848285016102a3565b60608301525092915050565b600060a082840312156103ad57600080fd5b6103b760a0610711565b9050600082013567ffffffffffffffff8111156103d357600080fd5b6103df848285016102f7565b600083015250602082013567ffffffffffffffff8111156103ff57600080fd5b61040b848285016102f7565b602083015250604082013567ffffffffffffffff81111561042b57600080fd5b610437848285016102cd565b604083015250606061044b8482850161046b565b606083015250608061045f8482850161046b565b60808301525092915050565b60008135905061047a816108a6565b92915050565b6000806040838503121561049357600080fd5b600083013567ffffffffffffffff8111156104ad57600080fd5b6104b9858286016102cd565b925050602083013567ffffffffffffffff8111156104d657600080fd5b6104e2858286016102cd565b9150509250929050565b60008060006060848603121561050157600080fd5b600084013567ffffffffffffffff81111561051b57600080fd5b610527868287016102cd565b935050602084013567ffffffffffffffff81111561054457600080fd5b610550868287016102cd565b925050604084013567ffffffffffffffff81111561056d57600080fd5b610579868287016102cd565b9150509250925092565b6000806040838503121561059657600080fd5b600083013567ffffffffffffffff8111156105b057600080fd5b6105bc8582860161039b565b925050602083013567ffffffffffffffff8111156105d957600080fd5b6105e58582860161039b565b9150509250929050565b6105f8816107d7565b82525050565b60006106098261079e565b61061381856107a9565b935061062381856020860161081c565b61062c8161087e565b840191505092915050565b60006106428261079e565b61064c81856107ba565b935061065c81856020860161081c565b80840191505092915050565b60006106748284610637565b915081905092915050565b600061068b8285610637565b91506106978284610637565b91508190509392505050565b60006106af8286610637565b91506106bb8285610637565b91506106c78284610637565b9150819050949350505050565b60006020820190506106e960008301846105ef565b92915050565b6000602082019050818103600083015261070981846105fe565b905092915050565b6000604051905081810181811067ffffffffffffffff821117156107385761073761084f565b5b8060405250919050565b600067ffffffffffffffff82111561075d5761075c61084f565b5b602082029050602081019050919050565b600067ffffffffffffffff8211156107895761078861084f565b5b601f19601f8301169050602081019050919050565b600081519050919050565b600082825260208201905092915050565b600081905092915050565b60006107d0826107e3565b9050919050565b60008115159050919050565b600073ffffffffffffffffffffffffffffffffffffffff82169050919050565b6000819050919050565b82818337600083830152505050565b60005b8381101561083a57808201518184015260208101905061081f565b83811115610849576000848401525b50505050565b7f4e487b7100000000000000000000000000000000000000000000000000000000600052604160045260246000fd5b6000601f19601f8301169050919050565b610898816107c5565b81146108a357600080fd5b50565b6108af81610803565b81146108ba57600080fd5b5056fea26469706673582212208cfc31026ebd7c75d2c5a05fe669f9cb924861cc7d2c7e9508e12c2018daa90c64736f6c63430008000033",
  "immutableReferences": {},
  "source": "pragma solidity ^0.8.0;\n\nlibrary Users {\n    \n    \n    struct Debater {\n        string name;\n        address payable addr;\n        uint totalSpeaks;\n        uint[] speaks;\n    }\n    \n    struct Team {\n        Debater debater1;\n        Debater debater2;\n        \n        string teamCode;\n        uint totalSpeaks;\n        uint wins;\n        \n    }\n    \n    \n    //TODO: Add conflicts - I had it in but it was causing weird compiler problems with reference passing so I took it out just to compile\n    struct Judge {\n        address payable judgeAddr;\n        string name;\n        // Team[] conflicts;\n        uint roundsRemaining;\n    }\n    \n    function compareTeams(Team memory _team1, Team memory _team2) public pure returns (bool) {\n        \n        //You Only need to compare one field because no two-teams with the same name would be registered Simultaneously\n        if (keccak256(abi.encodePacked(_team1.teamCode)) == keccak256(abi.encodePacked(_team2.teamCode))) return true;\n        else return false;\n        \n    }\n    \n    function append(string memory a, string memory b) public returns (string memory) {\n        return string(abi.encodePacked(a, b));\n    }\n    \n    function append(string memory a, string memory b, string memory c) public returns (string memory) {\n        return string(abi.encodePacked(a, b, c));\n    }\n    \n    \n    \n}",
  "sourcePath": "/Users/joshweintraub/Debat-eth/contracts/Users.sol",
  "compiler": {
    "name": "solc",
    "version": "0.8.0+commit.c7dfd78e.Linux.g++"
  },
  "schemaVersion": "3.3.3",
  "updatedAt": "2021-02-10T05:37:27.710Z",
  "devdoc": {
    "kind": "dev",
    "methods": {},
    "version": 1
  },
  "userdoc": {
    "kind": "user",
    "methods": {},
    "version": 1
  }
}